{"abi":[{"type":"constructor","inputs":[{"name":"_toad","type":"address","internalType":"address"}],"stateMutability":"nonpayable"},{"type":"function","name":"_clearProposal","inputs":[{"name":"_index","type":"uint256","internalType":"uint256"}],"outputs":[],"stateMutability":"nonpayable"},{"type":"function","name":"admin","inputs":[],"outputs":[{"name":"","type":"address","internalType":"address"}],"stateMutability":"view"},{"type":"function","name":"announceResults","inputs":[{"name":"_tallyIds","type":"uint256[]","internalType":"uint256[]"}],"outputs":[],"stateMutability":"nonpayable"},{"type":"function","name":"answer","inputs":[{"name":"_tallyIds","type":"uint256[]","internalType":"uint256[]"},{"name":"_answers","type":"uint8[]","internalType":"enum Answer[]"},{"name":"_reasons","type":"string[]","internalType":"string[]"}],"outputs":[],"stateMutability":"nonpayable"},{"type":"function","name":"canVote","inputs":[{"name":"_tallyIds","type":"uint256[]","internalType":"uint256[]"}],"outputs":[{"name":"results","type":"bool[]","internalType":"bool[]"}],"stateMutability":"view"},{"type":"function","name":"clearProposalByIndex","inputs":[{"name":"_index","type":"uint256","internalType":"uint256"}],"outputs":[],"stateMutability":"nonpayable"},{"type":"function","name":"clearProposalByTallyId","inputs":[{"name":"_tallyId","type":"uint256","internalType":"uint256"}],"outputs":[],"stateMutability":"nonpayable"},{"type":"function","name":"disabled","inputs":[],"outputs":[{"name":"","type":"bool","internalType":"bool"}],"stateMutability":"view"},{"type":"function","name":"discoverProposals","inputs":[{"name":"_tallyIds","type":"uint256[]","internalType":"uint256[]"},{"name":"_votingPeriods","type":"uint256[]","internalType":"uint256[]"}],"outputs":[],"stateMutability":"nonpayable"},{"type":"function","name":"getProposal","inputs":[{"name":"_tallyId","type":"uint256","internalType":"uint256"}],"outputs":[{"name":"","type":"tuple","internalType":"struct ProposalView","components":[{"name":"tallyId","type":"uint256","internalType":"uint256"},{"name":"answer","type":"uint8","internalType":"enum Answer"},{"name":"reason","type":"string","internalType":"string"},{"name":"discoveredAt","type":"uint256","internalType":"uint256"},{"name":"validBlock","type":"uint256","internalType":"uint256"},{"name":"disablePower","type":"uint256","internalType":"uint256"},{"name":"votingPeriod","type":"uint256","internalType":"uint256"},{"name":"announced","type":"bool","internalType":"bool"}]}],"stateMutability":"view"},{"type":"function","name":"hasVotingPower","inputs":[{"name":"_address","type":"address","internalType":"address"}],"outputs":[{"name":"","type":"bool","internalType":"bool"}],"stateMutability":"view"},{"type":"function","name":"isMember","inputs":[{"name":"_address","type":"address","internalType":"address"}],"outputs":[{"name":"","type":"bool","internalType":"bool"}],"stateMutability":"view"},{"type":"function","name":"proposalDisablerList","inputs":[{"name":"","type":"uint256","internalType":"uint256"},{"name":"","type":"address","internalType":"address"}],"outputs":[{"name":"confirmed","type":"bool","internalType":"bool"},{"name":"votingPower","type":"uint256","internalType":"uint256"}],"stateMutability":"view"},{"type":"function","name":"proposalList","inputs":[{"name":"","type":"uint256","internalType":"uint256"}],"outputs":[{"name":"","type":"uint256","internalType":"uint256"}],"stateMutability":"view"},{"type":"function","name":"setAdmin","inputs":[{"name":"_admin","type":"address","internalType":"address"}],"outputs":[],"stateMutability":"nonpayable"},{"type":"function","name":"setDisablePower","inputs":[{"name":"_tallyIds","type":"uint256[]","internalType":"uint256[]"}],"outputs":[],"stateMutability":"nonpayable"},{"type":"function","name":"setTallyGovernor","inputs":[{"name":"_tallyGovernor","type":"address","internalType":"address"}],"outputs":[],"stateMutability":"nonpayable"},{"type":"function","name":"setToad","inputs":[{"name":"_toad","type":"address","internalType":"address"}],"outputs":[],"stateMutability":"nonpayable"},{"type":"function","name":"setValidBlockInterval","inputs":[{"name":"_validBlockInterval","type":"uint256","internalType":"uint256"}],"outputs":[],"stateMutability":"nonpayable"},{"type":"function","name":"tallyGovernor","inputs":[],"outputs":[{"name":"","type":"address","internalType":"contract GovernorVotes"}],"stateMutability":"view"},{"type":"function","name":"toad","inputs":[],"outputs":[{"name":"","type":"address","internalType":"address"}],"stateMutability":"view"},{"type":"function","name":"toggle","inputs":[{"name":"_tallyIds","type":"uint256[]","internalType":"uint256[]"},{"name":"_member","type":"address","internalType":"address"}],"outputs":[],"stateMutability":"nonpayable"},{"type":"function","name":"validBlockInterval","inputs":[],"outputs":[{"name":"","type":"uint256","internalType":"uint256"}],"stateMutability":"view"},{"type":"function","name":"vote","inputs":[{"name":"_tallyIds","type":"uint256[]","internalType":"uint256[]"}],"outputs":[],"stateMutability":"nonpayable"},{"type":"event","name":"AdminChanged","inputs":[{"name":"oldAdmin","type":"address","indexed":false,"internalType":"address"},{"name":"newAdmin","type":"address","indexed":false,"internalType":"address"}],"anonymous":false},{"type":"event","name":"DisablerAdded","inputs":[{"name":"tallyId","type":"uint256","indexed":false,"internalType":"uint256"},{"name":"disabler","type":"address","indexed":false,"internalType":"address"},{"name":"votingPower","type":"uint256","indexed":false,"internalType":"uint256"}],"anonymous":false},{"type":"event","name":"ProposalCleared","inputs":[{"name":"tallyId","type":"uint256","indexed":false,"internalType":"uint256"}],"anonymous":false},{"type":"event","name":"ResultsAnnounced","inputs":[{"name":"tallyId","type":"uint256","indexed":true,"internalType":"uint256"},{"name":"answer","type":"uint8","indexed":false,"internalType":"enum Answer"}],"anonymous":false},{"type":"event","name":"TallyGovernorChanged","inputs":[{"name":"oldTallyGovernor","type":"address","indexed":false,"internalType":"address"},{"name":"newTallyGovernor","type":"address","indexed":false,"internalType":"address"}],"anonymous":false},{"type":"event","name":"ToadChanged","inputs":[{"name":"oldToad","type":"address","indexed":false,"internalType":"address"},{"name":"newToad","type":"address","indexed":false,"internalType":"address"}],"anonymous":false},{"type":"event","name":"ValidBlockIntervalChanged","inputs":[{"name":"oldValidBlockInterval","type":"uint256","indexed":false,"internalType":"uint256"},{"name":"newValidBlockInterval","type":"uint256","indexed":false,"internalType":"uint256"}],"anonymous":false},{"type":"event","name":"VoteCast","inputs":[{"name":"tallyId","type":"uint256","indexed":true,"internalType":"uint256"},{"name":"answer","type":"uint8","indexed":false,"internalType":"enum Answer"},{"name":"reason","type":"string","indexed":false,"internalType":"string"}],"anonymous":false},{"type":"error","name":"ArrayLengthsMustMatch","inputs":[]},{"type":"error","name":"CallerAlreadyDisablingProposal","inputs":[]},{"type":"error","name":"CallerHasNoVotingPower","inputs":[]},{"type":"error","name":"CallerNotAdmin","inputs":[]},{"type":"error","name":"CallerNotToad","inputs":[]},{"type":"error","name":"DuplicateProposal","inputs":[]},{"type":"error","name":"EmptyArrayNotAllowed","inputs":[]},{"type":"error","name":"MemberHasNoVotingPower","inputs":[]},{"type":"error","name":"NoProposalsToAnswer","inputs":[]},{"type":"error","name":"NoProposalsToClear","inputs":[]},{"type":"error","name":"ProposalIndexOutOfBounds","inputs":[]},{"type":"error","name":"ProposalNotActiveForAnswering","inputs":[]},{"type":"error","name":"ProposalNotActiveForDisabling","inputs":[]},{"type":"error","name":"ProposalStillActive","inputs":[]},{"type":"error","name":"ResultsAlreadyAnnounced","inputs":[]},{"type":"error","name":"TallyGovernorNotSet","inputs":[]},{"type":"error","name":"ValidBlockIntervalMustBeGreaterThanZero","inputs":[]},{"type":"error","name":"ZeroAddressNotAllowed","inputs":[]}],"bytecode":{"object":"0x608060405234801562000010575f80fd5b50604051620029b9380380620029b9833981016040819052620000339162000096565b6001600160a01b0381166200005b576040516342bcdf7f60e11b815260040160405180910390fd5b60038054336001600160a01b031991821617909155600280549091166001600160a01b039290921691909117905562015180600155620000c5565b5f60208284031215620000a7575f80fd5b81516001600160a01b0381168114620000be575f80fd5b9392505050565b6128e680620000d35f395ff3fe608060405234801561000f575f80fd5b5060043610610153575f3560e01c8063a230c524116100bf578063dec45df211610079578063dec45df214610345578063e719427814610358578063ee0708051461036b578063f758a86d1461037f578063f851a44014610392578063ff0fc0c9146103a5575f80fd5b8063a230c5241461026f578063a9b4563c14610292578063ae7c8116146102a5578063c6311e3f146102f3578063c7f758a814610312578063ce11f2bb14610332575f80fd5b8063529bb74611610110578063529bb746146101e15780636a832c3c146101f8578063704b6c02146102235780637509211414610236578063895ccf53146102495780639eb7a5f21461025c575f80fd5b80631525048f146101575780632e9a26141461016c578063306750bd1461017f5780633432c44f146101925780633ceeb85d146101bb57806345731fc8146101ce575b5f80fd5b61016a61016536600461215f565b6103b8565b005b61016a61017a36600461215f565b610410565b61016a61018d36600461224a565b610574565b6101a56101a03660046122aa565b610823565b6040516101b291906122e4565b60405180910390f35b61016a6101c936600461215f565b610a91565b61016a6101dc366004612404565b610b1d565b6101ea60015481565b6040519081526020016101b2565b60025461020b906001600160a01b031681565b6040516001600160a01b0390911681526020016101b2565b61016a6102313660046124f8565b610caa565b60045461020b906001600160a01b031681565b61016a6102573660046124f8565b610d65565b61016a61026a3660046122aa565b610e20565b61028261027d3660046124f8565b610f32565b60405190151581526020016101b2565b6102826102a03660046124f8565b61106a565b6102dc6102b336600461251a565b600660209081525f92835260408084209091529082529020805460019091015460ff9091169082565b6040805192151583526020830191909152016101b2565b6101ea61030136600461215f565b60056020525f908152604090205481565b61032561032036600461215f565b6111a6565b6040516101b291906125bf565b61016a6103403660046122aa565b61132b565b61016a6103533660046124f8565b611787565b61016a6103663660046122aa565b611842565b60025461028290600160a01b900460ff1681565b61016a61038d36600461263a565b611c70565b60035461020b906001600160a01b031681565b61016a6103b336600461215f565b6120b2565b6002546001600160a01b031633146103e3576040516355ca80f160e11b815260040160405180910390fd5b5f54811061040457604051631dbf54d360e31b815260040160405180910390fd5b61040d81610410565b50565b6002546001600160a01b0316331461043b576040516355ca80f160e11b815260040160405180910390fd5b5f8054900361045d5760405163c9728d0360e01b815260040160405180910390fd5b5f54811061047e57604051631dbf54d360e31b815260040160405180910390fd5b5f8082815481106104915761049161267e565b905f5260205f2090600802019050806006015443116104c357604051630e6c500560e31b815260040160405180910390fd5b80545f8054849081106104d8576104d861267e565b5f9182526020822060089091020181815560018101805460ff19169055906105036002830182612115565b505f60038201819055600482018190556005808301829055600683018290556007909201805460ff191690558281526020918252604080822091909155518281527f36a3a1d8b511920ea8ee33b418cd9d16939971201eb71b178a38e3f93c52f938910160405180910390a1505050565b6002546001600160a01b0316331461059f576040516355ca80f160e11b815260040160405180910390fd5b81515f036105c057604051630a132f2160e11b815260040160405180910390fd5b80518251146105e25760405163587543d160e01b815260040160405180910390fd5b5f5b825181101561068d575f60055f8584815181106106035761060361267e565b602002602001015181526020019081526020015f205490505f8054905081108015610666575083828151811061063b5761063b61267e565b60200260200101515f82815481106106555761065561267e565b905f5260205f2090600802015f0154145b15610684576040516348606b4b60e11b815260040160405180910390fd5b506001016105e4565b505f5b825181101561081e575f808054905090508060055f8685815181106106b7576106b761267e565b602002602001015181526020019081526020015f20819055505f6040518061010001604052808685815181106106ef576106ef61267e565b6020026020010151815260200160028081111561070e5761070e612548565b815260200160405180602001604052805f81525081526020014381526020016001544361073b91906126a6565b81526020015f81526020018585815181106107585761075861267e565b60200260200101514361076b91906126a6565b81525f6020918201819052835460018181018655948252908290208351600890920201908155908201518184018054939492939192909160ff1916908360028111156107b9576107b9612548565b0217905550604082015160028201906107d29082612735565b50606082015160038201556080820151600482015560a0820151600582015560c0820151600682015560e0909101516007909101805460ff191691151591909117905550600101610690565b505050565b606081515f0361084657604051630a132f2160e11b815260040160405180910390fd5b815167ffffffffffffffff81111561086057610860612176565b604051908082528060200260200182016040528015610889578160200160208202803683370190505b5090505f5b8251811015610a8b575f60055f8584815181106108ad576108ad61267e565b602002602001015181526020019081526020015f205490505f8054905081106108e957604051631dbf54d360e31b815260040160405180910390fd5b5f81815481106108fb576108fb61267e565b905f5260205f20906008020160040154431161093a575f8383815181106109245761092461267e565b9115156020928302919091019091015250610a83565b5f60045f9054906101000a90046001600160a01b03166001600160a01b031663fc0c546a6040518163ffffffff1660e01b8152600401602060405180830381865afa15801561098b573d5f803e3d5ffd5b505050506040513d601f19601f820116820180604052508101906109af91906127f5565b6002546040516309ab24eb60e41b81526001600160a01b039182166004820152911690639ab24eb090602401602060405180830381865afa1580156109f6573d5f803e3d5ffd5b505050506040513d601f19601f82011682018060405250810190610a1a9190612810565b90505f808381548110610a2f57610a2f61267e565b905f5260205f209060080201600501549050600282610a4e9190612827565b8111610a5b576001610a5d565b5f5b858581518110610a6f57610a6f61267e565b911515602092830291909101909101525050505b60010161088e565b50919050565b6003546001600160a01b03163314610abc5760405163036c8cf960e11b815260040160405180910390fd5b805f03610adc57604051632dc3146560e21b815260040160405180910390fd5b60015460408051918252602082018390527fd1a78b8a588d3c50255f3f4651cba1fbf36eee5bc0ef65a97063255db054dafb910160405180910390a1600155565b6002546001600160a01b03163314610b48576040516355ca80f160e11b815260040160405180910390fd5b5f80549003610b6a576040516321eb230560e21b815260040160405180910390fd5b8151835114610b8c5760405163587543d160e01b815260040160405180910390fd5b8051835114610bae5760405163587543d160e01b815260040160405180910390fd5b5f5b8351811015610ca4575f60055f868481518110610bcf57610bcf61267e565b602002602001015181526020019081526020015f205490505f808281548110610bfa57610bfa61267e565b905f5260205f209060080201905080600401544310610c2c57604051639a8a9d5560e01b815260040160405180910390fd5b848381518110610c3e57610c3e61267e565b6020026020010151816001015f6101000a81548160ff02191690836002811115610c6a57610c6a612548565b0217905550838381518110610c8157610c8161267e565b6020026020010151816002019081610c999190612735565b505050600101610bb0565b50505050565b6003546001600160a01b03163314610cd55760405163036c8cf960e11b815260040160405180910390fd5b6001600160a01b038116610cfc576040516342bcdf7f60e11b815260040160405180910390fd5b600354604080516001600160a01b03928316815291831660208301527f7e644d79422f17c01e4894b5f4f588d331ebfa28653d42ae832dc59e38c9798f910160405180910390a1600380546001600160a01b0319166001600160a01b0392909216919091179055565b6003546001600160a01b03163314610d905760405163036c8cf960e11b815260040160405180910390fd5b6001600160a01b038116610db7576040516342bcdf7f60e11b815260040160405180910390fd5b600254604080516001600160a01b03928316815291831660208301527f0eb8852de2c80499ebd4bb59bbe455a85d5ce47bd310236f0e025f5c2cd38b1b910160405180910390a1600280546001600160a01b0319166001600160a01b0392909216919091179055565b6002546001600160a01b03163314610e4b576040516355ca80f160e11b815260040160405180910390fd5b5f5b8151811015610f2e575f60055f848481518110610e6c57610e6c61267e565b602002602001015181526020019081526020015f205490505f808281548110610e9757610e9761267e565b5f9182526020909120600890910201600781015490915060ff1615610ecf5760405163059f169d60e41b815260040160405180910390fd5b805460018201546040517f1543ace2cc7bdf4f64e0bea7f31f4697609dc6d781606cabf5567b6c4325c48c91610f0a9160ff90911690612846565b60405180910390a2600701805460ff19166001908117909155919091019050610e4d565b5050565b6004545f906001600160a01b0316610f5d57604051633703fab160e21b815260040160405180910390fd5b6001600160a01b038216610f84576040516342bcdf7f60e11b815260040160405180910390fd5b6004805460408051637e062a3560e11b8152905130936001600160a01b039093169263fc0c546a928082019260209290918290030181865afa158015610fcc573d5f803e3d5ffd5b505050506040513d601f19601f82011682018060405250810190610ff091906127f5565b604051632c3e6f0f60e11b81526001600160a01b038581166004830152919091169063587cde1e90602401602060405180830381865afa158015611036573d5f803e3d5ffd5b505050506040513d601f19601f8201168201806040525081019061105a91906127f5565b6001600160a01b03161492915050565b6004545f906001600160a01b031661109557604051633703fab160e21b815260040160405180910390fd5b6001600160a01b0382166110bc576040516342bcdf7f60e11b815260040160405180910390fd5b5f60045f9054906101000a90046001600160a01b03166001600160a01b031663fc0c546a6040518163ffffffff1660e01b8152600401602060405180830381865afa15801561110d573d5f803e3d5ffd5b505050506040513d601f19601f8201168201806040525081019061113191906127f5565b6040516309ab24eb60e41b81526001600160a01b0385811660048301529192505f91831690639ab24eb090602401602060405180830381865afa15801561117a573d5f803e3d5ffd5b505050506040513d601f19601f8201168201806040525081019061119e9190612810565b119392505050565b6111eb6040805161010081019091525f80825260208201908152602001606081526020015f81526020015f81526020015f81526020015f81526020015f151581525090565b5f8281526005602052604081205481549091908190839081106112105761121061267e565b905f5260205f2090600802019050604051806101000160405280825f01548152602001826001015f9054906101000a900460ff16600281111561125557611255612548565b8152602001826002018054611269906126bf565b80601f0160208091040260200160405190810160405280929190818152602001828054611295906126bf565b80156112e05780601f106112b7576101008083540402835291602001916112e0565b820191905f5260205f20905b8154815290600101906020018083116112c357829003601f168201915b50505091835250506003830154602082015260048301546040820152600583015460608201526006830154608082015260079092015460ff16151560a0909201919091529392505050565b6002546001600160a01b03163314611356576040516355ca80f160e11b815260040160405180910390fd5b80515f0361137757604051630a132f2160e11b815260040160405180910390fd5b5f61138182610823565b90505f5b82518110156113cd578181815181106113a0576113a061267e565b60200260200101516113c557604051639a8a9d5560e01b815260040160405180910390fd5b600101611385565b505f825167ffffffffffffffff8111156113e9576113e9612176565b604051908082528060200260200182016040528015611412578160200160208202803683370190505b5090505f835167ffffffffffffffff81111561143057611430612176565b60405190808252806020026020018201604052801561146357816020015b606081526020019060019003908161144e5790505b5090505f5b84518110156115c4575f60055f8784815181106114875761148761267e565b602002602001015181526020019081526020015f205490505f8082815481106114b2576114b261267e565b905f5260205f2090600802019050806001015f9054906101000a900460ff168584815181106114e3576114e361267e565b602002602001019060028111156114fc576114fc612548565b9081600281111561150f5761150f612548565b905250600281018054611521906126bf565b80601f016020809104026020016040519081016040528092919081815260200182805461154d906126bf565b80156115985780601f1061156f57610100808354040283529160200191611598565b820191905f5260205f20905b81548152906001019060200180831161157b57829003601f168201915b50505050508484815181106115af576115af61267e565b60209081029190910101525050600101611468565b505f5b8451811015611780575f60018483815181106115e5576115e561267e565b602002602001015160028111156115fe576115fe612548565b0361160b57506001611647565b5f84838151811061161e5761161e61267e565b6020026020010151600281111561163757611637612548565b0361164357505f611647565b5060025b60045486516001600160a01b0390911690637b3c71d3908890859081106116705761167061267e565b60200260200101518386868151811061168b5761168b61267e565b60200260200101516040518463ffffffff1660e01b81526004016116b193929190612854565b6020604051808303815f875af11580156116cd573d5f803e3d5ffd5b505050506040513d601f19601f820116820180604052508101906116f19190612810565b508582815181106117045761170461267e565b60200260200101517ff32f6d145e8e4dc0c0084b1382f3f394be9c4ba5fe630fb91177e30e441ab37e85848151811061173f5761173f61267e565b60200260200101518585815181106117595761175961267e565b602002602001015160405161176f92919061287e565b60405180910390a2506001016115c7565b5050505050565b6003546001600160a01b031633146117b25760405163036c8cf960e11b815260040160405180910390fd5b6001600160a01b0381166117d9576040516342bcdf7f60e11b815260040160405180910390fd5b600454604080516001600160a01b03928316815291831660208301527f6917fdc3c398926bf1b605ba131d9b099995c600bdee588cee456cc89dc8edba910160405180910390a1600480546001600160a01b0319166001600160a01b0392909216919091179055565b33611860576040516342bcdf7f60e11b815260040160405180910390fd5b6118693361106a565b61188657604051633b9df69560e01b815260040160405180910390fd5b5f60045f9054906101000a90046001600160a01b03166001600160a01b031663fc0c546a6040518163ffffffff1660e01b8152600401602060405180830381865afa1580156118d7573d5f803e3d5ffd5b505050506040513d601f19601f820116820180604052508101906118fb91906127f5565b6040516309ab24eb60e41b81523360048201526001600160a01b039190911690639ab24eb090602401602060405180830381865afa15801561193f573d5f803e3d5ffd5b505050506040513d601f19601f820116820180604052508101906119639190612810565b90505f5b825181101561081e575f60055f8584815181106119865761198661267e565b602002602001015181526020019081526020015f205490505f8054905081106119c257604051631dbf54d360e31b815260040160405180910390fd5b5f8082815481106119d5576119d561267e565b905f5260205f209060080201604051806101000160405290815f8201548152602001600182015f9054906101000a900460ff166002811115611a1957611a19612548565b6002811115611a2a57611a2a612548565b8152602001600282018054611a3e906126bf565b80601f0160208091040260200160405190810160405280929190818152602001828054611a6a906126bf565b8015611ab55780601f10611a8c57610100808354040283529160200191611ab5565b820191905f5260205f20905b815481529060010190602001808311611a9857829003601f168201915b5050509183525050600382015460208201526004820154604082015260058201546060820152600682015460808083019190915260079092015460ff16151560a0909101528101519091504310611b1f57604051631973a3eb60e01b815260040160405180910390fd5b5f60065f878681518110611b3557611b3561267e565b602002602001015181526020019081526020015f205f336001600160a01b03166001600160a01b031681526020019081526020015f20600101541115611b8e57604051633f88ab0560e11b815260040160405180910390fd5b60405180604001604052805f151581526020018581525060065f878681518110611bba57611bba61267e565b60209081029190910181015182528181019290925260409081015f9081203382528352208251815460ff191690151517815591015160019091015584517fd76e2875be0b8cdf68c72d99b67e3625455540bfc433467e84cd613b172cd89490869085908110611c2b57611c2b61267e565b60200260200101513386604051611c5e939291909283526001600160a01b03919091166020830152604082015260600190565b60405180910390a15050600101611967565b6001600160a01b038116611c97576040516342bcdf7f60e11b815260040160405180910390fd5b5f5b825181101561081e5760065f848381518110611cb757611cb761267e565b602002602001015181526020019081526020015f205f836001600160a01b03166001600160a01b031681526020019081526020015f20600101545f03611d1057604051630114621d60e31b815260040160405180910390fd5b5f60055f858481518110611d2657611d2661267e565b602002602001015181526020019081526020015f205490505f805490508110611d6257604051631dbf54d360e31b815260040160405180910390fd5b5f808281548110611d7557611d7561267e565b905f5260205f209060080201905060065f868581518110611d9857611d9861267e565b60209081029190910181015182528181019290925260409081015f9081206001600160a01b038816825290925290205460ff16158015611ddc5750611ddc84610f32565b15611ea35760065f868581518110611df657611df661267e565b602002602001015181526020019081526020015f205f856001600160a01b03166001600160a01b031681526020019081526020015f2060010154816005015f828254611e4291906126a6565b92505081905550600160065f878681518110611e6057611e6061267e565b60209081029190910181015182528181019290925260409081015f9081206001600160a01b03891682529092529020805460ff19169115159190911790556120a8565b60065f868581518110611eb857611eb861267e565b60209081029190910181015182528181019290925260409081015f9081206001600160a01b038816825290925290205460ff1615156001148015611f025750611f0084610f32565b155b15611f855760065f868581518110611f1c57611f1c61267e565b602002602001015181526020019081526020015f205f856001600160a01b03166001600160a01b031681526020019081526020015f2060010154816005015f828254611f68919061289d565b925050819055505f60065f878681518110611e6057611e6061267e565b60065f868581518110611f9a57611f9a61267e565b60209081029190910181015182528181019290925260409081015f9081206001600160a01b038816825290925290205460ff1615156001148015611fe65750336001600160a01b038516145b156120a85760065f8685815181106120005761200061267e565b602002602001015181526020019081526020015f205f856001600160a01b03166001600160a01b031681526020019081526020015f2060010154816005015f82825461204c919061289d565b925050819055505f60065f8786815181106120695761206961267e565b60209081029190910181015182528181019290925260409081015f9081206001600160a01b03891682529092529020805460ff19169115159190911790555b5050600101611c99565b6002546001600160a01b031633146120dd576040516355ca80f160e11b815260040160405180910390fd5b5f818152600560205260408120549054811061210c57604051631dbf54d360e31b815260040160405180910390fd5b610f2e81610410565b508054612121906126bf565b5f825580601f10612130575050565b601f0160209004905f5260205f209081019061040d91905b8082111561215b575f8155600101612148565b5090565b5f6020828403121561216f575f80fd5b5035919050565b634e487b7160e01b5f52604160045260245ffd5b604051601f8201601f1916810167ffffffffffffffff811182821017156121b3576121b3612176565b604052919050565b5f67ffffffffffffffff8211156121d4576121d4612176565b5060051b60200190565b5f82601f8301126121ed575f80fd5b813560206122026121fd836121bb565b61218a565b8083825260208201915060208460051b870101935086841115612223575f80fd5b602086015b8481101561223f5780358352918301918301612228565b509695505050505050565b5f806040838503121561225b575f80fd5b823567ffffffffffffffff80821115612272575f80fd5b61227e868387016121de565b93506020850135915080821115612293575f80fd5b506122a0858286016121de565b9150509250929050565b5f602082840312156122ba575f80fd5b813567ffffffffffffffff8111156122d0575f80fd5b6122dc848285016121de565b949350505050565b602080825282518282018190525f9190848201906040850190845b8181101561231d5783511515835292840192918401916001016122ff565b50909695505050505050565b5f601f83601f84011261233a575f80fd5b8235602061234a6121fd836121bb565b82815260059290921b85018101918181019087841115612368575f80fd5b8287015b848110156123f857803567ffffffffffffffff8082111561238b575f80fd5b818a0191508a603f83011261239e575f80fd5b858201356040828211156123b4576123b4612176565b6123c5828b01601f1916890161218a565b92508183528c818386010111156123da575f80fd5b8181850189850137505f90820187015284525091830191830161236c565b50979650505050505050565b5f805f60608486031215612416575f80fd5b833567ffffffffffffffff8082111561242d575f80fd5b612439878388016121de565b945060209150818601358181111561244f575f80fd5b8601601f8101881361245f575f80fd5b803561246d6121fd826121bb565b81815260059190911b8201840190848101908a83111561248b575f80fd5b928501925b828410156124b5578335600381106124a6575f80fd5b82529285019290850190612490565b965050505060408601359150808211156124cd575f80fd5b506124da86828701612329565b9150509250925092565b6001600160a01b038116811461040d575f80fd5b5f60208284031215612508575f80fd5b8135612513816124e4565b9392505050565b5f806040838503121561252b575f80fd5b82359150602083013561253d816124e4565b809150509250929050565b634e487b7160e01b5f52602160045260245ffd5b6003811061257857634e487b7160e01b5f52602160045260245ffd5b9052565b5f81518084525f5b818110156125a057602081850181015186830182015201612584565b505f602082860101526020601f19601f83011685010191505092915050565b60208152815160208201525f60208301516125dd604084018261255c565b5060408301516101008060608501526125fa61012085018361257c565b915060608501516080850152608085015160a085015260a085015160c085015260c085015160e085015260e0850151151581850152508091505092915050565b5f806040838503121561264b575f80fd5b823567ffffffffffffffff811115612661575f80fd5b61266d858286016121de565b925050602083013561253d816124e4565b634e487b7160e01b5f52603260045260245ffd5b634e487b7160e01b5f52601160045260245ffd5b808201808211156126b9576126b9612692565b92915050565b600181811c908216806126d357607f821691505b602082108103610a8b57634e487b7160e01b5f52602260045260245ffd5b601f82111561081e57805f5260205f20601f840160051c810160208510156127165750805b601f840160051c820191505b81811015611780575f8155600101612722565b815167ffffffffffffffff81111561274f5761274f612176565b6127638161275d84546126bf565b846126f1565b602080601f831160018114612796575f841561277f5750858301515b5f19600386901b1c1916600185901b1785556127ed565b5f85815260208120601f198616915b828110156127c4578886015182559484019460019091019084016127a5565b50858210156127e157878501515f19600388901b60f8161c191681555b505060018460011b0185555b505050505050565b5f60208284031215612805575f80fd5b8151612513816124e4565b5f60208284031215612820575f80fd5b5051919050565b5f8261284157634e487b7160e01b5f52601260045260245ffd5b500490565b602081016126b9828461255c565b83815260ff83166020820152606060408201525f612875606083018461257c565b95945050505050565b612888818461255c565b604060208201525f6122dc604083018461257c565b818103818111156126b9576126b961269256fea264697066735822122066a840fdfa2617818bc30eb179efa5657a381d82a9ab8312534fca181510bf9764736f6c63430008180033","linkReferences":{}},"methodIdentifiers":{"_clearProposal(uint256)":"2e9a2614","admin()":"f851a440","announceResults(uint256[])":"9eb7a5f2","answer(uint256[],uint8[],string[])":"45731fc8","canVote(uint256[])":"3432c44f","clearProposalByIndex(uint256)":"1525048f","clearProposalByTallyId(uint256)":"ff0fc0c9","disabled()":"ee070805","discoverProposals(uint256[],uint256[])":"306750bd","getProposal(uint256)":"c7f758a8","hasVotingPower(address)":"a9b4563c","isMember(address)":"a230c524","proposalDisablerList(uint256,address)":"ae7c8116","proposalList(uint256)":"c6311e3f","setAdmin(address)":"704b6c02","setDisablePower(uint256[])":"e7194278","setTallyGovernor(address)":"dec45df2","setToad(address)":"895ccf53","setValidBlockInterval(uint256)":"3ceeb85d","tallyGovernor()":"75092114","toad()":"6a832c3c","toggle(uint256[],address)":"f758a86d","validBlockInterval()":"529bb746","vote(uint256[])":"ce11f2bb"},"id":59}