{"abi":[{"type":"constructor","inputs":[{"name":"_toad","type":"address","internalType":"address"}],"stateMutability":"nonpayable"},{"type":"function","name":"_clearProposal","inputs":[{"name":"_index","type":"uint256","internalType":"uint256"}],"outputs":[],"stateMutability":"nonpayable"},{"type":"function","name":"admin","inputs":[],"outputs":[{"name":"","type":"address","internalType":"address"}],"stateMutability":"view"},{"type":"function","name":"announceResults","inputs":[{"name":"_tallyIds","type":"uint256[]","internalType":"uint256[]"}],"outputs":[],"stateMutability":"nonpayable"},{"type":"function","name":"answer","inputs":[{"name":"_tallyIds","type":"uint256[]","internalType":"uint256[]"},{"name":"_answers","type":"uint8[]","internalType":"enum Answer[]"},{"name":"_reasons","type":"string[]","internalType":"string[]"}],"outputs":[],"stateMutability":"nonpayable"},{"type":"function","name":"canVote","inputs":[{"name":"_tallyIds","type":"uint256[]","internalType":"uint256[]"}],"outputs":[{"name":"results","type":"bool[]","internalType":"bool[]"}],"stateMutability":"view"},{"type":"function","name":"clearProposalByIndex","inputs":[{"name":"_index","type":"uint256","internalType":"uint256"}],"outputs":[],"stateMutability":"nonpayable"},{"type":"function","name":"clearProposalByTallyId","inputs":[{"name":"_tallyId","type":"uint256","internalType":"uint256"}],"outputs":[],"stateMutability":"nonpayable"},{"type":"function","name":"disabled","inputs":[],"outputs":[{"name":"","type":"bool","internalType":"bool"}],"stateMutability":"view"},{"type":"function","name":"discoverProposals","inputs":[{"name":"_tallyIds","type":"uint256[]","internalType":"uint256[]"},{"name":"_votingPeriods","type":"uint256[]","internalType":"uint256[]"}],"outputs":[],"stateMutability":"nonpayable"},{"type":"function","name":"getProposal","inputs":[{"name":"_tallyId","type":"uint256","internalType":"uint256"}],"outputs":[{"name":"","type":"tuple","internalType":"struct ProposalView","components":[{"name":"tallyId","type":"uint256","internalType":"uint256"},{"name":"answer","type":"uint8","internalType":"enum Answer"},{"name":"reason","type":"string","internalType":"string"},{"name":"discoveredAt","type":"uint256","internalType":"uint256"},{"name":"validBlock","type":"uint256","internalType":"uint256"},{"name":"disablePower","type":"uint256","internalType":"uint256"},{"name":"votingPeriod","type":"uint256","internalType":"uint256"},{"name":"announced","type":"bool","internalType":"bool"}]}],"stateMutability":"view"},{"type":"function","name":"hasVotingPower","inputs":[{"name":"_address","type":"address","internalType":"address"}],"outputs":[{"name":"","type":"bool","internalType":"bool"}],"stateMutability":"view"},{"type":"function","name":"isMember","inputs":[{"name":"_address","type":"address","internalType":"address"}],"outputs":[{"name":"","type":"bool","internalType":"bool"}],"stateMutability":"view"},{"type":"function","name":"proposalDisablerList","inputs":[{"name":"","type":"uint256","internalType":"uint256"},{"name":"","type":"address","internalType":"address"}],"outputs":[{"name":"confirmed","type":"bool","internalType":"bool"},{"name":"votingPower","type":"uint256","internalType":"uint256"}],"stateMutability":"view"},{"type":"function","name":"proposalList","inputs":[{"name":"","type":"uint256","internalType":"uint256"}],"outputs":[{"name":"","type":"uint256","internalType":"uint256"}],"stateMutability":"view"},{"type":"function","name":"setAdmin","inputs":[{"name":"_admin","type":"address","internalType":"address"}],"outputs":[],"stateMutability":"nonpayable"},{"type":"function","name":"setDisablePower","inputs":[{"name":"_tallyIds","type":"uint256[]","internalType":"uint256[]"}],"outputs":[],"stateMutability":"nonpayable"},{"type":"function","name":"setTallyGovernor","inputs":[{"name":"_tallyGovernor","type":"address","internalType":"address"}],"outputs":[],"stateMutability":"nonpayable"},{"type":"function","name":"setToad","inputs":[{"name":"_toad","type":"address","internalType":"address"}],"outputs":[],"stateMutability":"nonpayable"},{"type":"function","name":"setValidBlockInterval","inputs":[{"name":"_validBlockInterval","type":"uint256","internalType":"uint256"}],"outputs":[],"stateMutability":"nonpayable"},{"type":"function","name":"tallyGovernor","inputs":[],"outputs":[{"name":"","type":"address","internalType":"contract GovernorVotes"}],"stateMutability":"view"},{"type":"function","name":"toad","inputs":[],"outputs":[{"name":"","type":"address","internalType":"address"}],"stateMutability":"view"},{"type":"function","name":"toggle","inputs":[{"name":"_tallyIds","type":"uint256[]","internalType":"uint256[]"},{"name":"_member","type":"address","internalType":"address"}],"outputs":[],"stateMutability":"nonpayable"},{"type":"function","name":"validBlockInterval","inputs":[],"outputs":[{"name":"","type":"uint256","internalType":"uint256"}],"stateMutability":"view"},{"type":"function","name":"vote","inputs":[{"name":"_tallyIds","type":"uint256[]","internalType":"uint256[]"}],"outputs":[],"stateMutability":"nonpayable"},{"type":"event","name":"AdminChanged","inputs":[{"name":"oldAdmin","type":"address","indexed":false,"internalType":"address"},{"name":"newAdmin","type":"address","indexed":false,"internalType":"address"}],"anonymous":false},{"type":"event","name":"DisablerAdded","inputs":[{"name":"tallyId","type":"uint256","indexed":false,"internalType":"uint256"},{"name":"disabler","type":"address","indexed":false,"internalType":"address"},{"name":"votingPower","type":"uint256","indexed":false,"internalType":"uint256"}],"anonymous":false},{"type":"event","name":"ProposalCleared","inputs":[{"name":"tallyId","type":"uint256","indexed":false,"internalType":"uint256"}],"anonymous":false},{"type":"event","name":"ResultsAnnounced","inputs":[{"name":"tallyId","type":"uint256","indexed":true,"internalType":"uint256"},{"name":"answer","type":"uint8","indexed":false,"internalType":"enum Answer"}],"anonymous":false},{"type":"event","name":"TallyGovernorChanged","inputs":[{"name":"oldTallyGovernor","type":"address","indexed":false,"internalType":"address"},{"name":"newTallyGovernor","type":"address","indexed":false,"internalType":"address"}],"anonymous":false},{"type":"event","name":"ToadChanged","inputs":[{"name":"oldToad","type":"address","indexed":false,"internalType":"address"},{"name":"newToad","type":"address","indexed":false,"internalType":"address"}],"anonymous":false},{"type":"event","name":"ValidBlockIntervalChanged","inputs":[{"name":"oldValidBlockInterval","type":"uint256","indexed":false,"internalType":"uint256"},{"name":"newValidBlockInterval","type":"uint256","indexed":false,"internalType":"uint256"}],"anonymous":false},{"type":"event","name":"VoteCast","inputs":[{"name":"tallyId","type":"uint256","indexed":true,"internalType":"uint256"},{"name":"answer","type":"uint8","indexed":false,"internalType":"enum Answer"},{"name":"reason","type":"string","indexed":false,"internalType":"string"}],"anonymous":false},{"type":"error","name":"ArrayLengthsMustMatch","inputs":[]},{"type":"error","name":"CallerAlreadyDisablingProposal","inputs":[]},{"type":"error","name":"CallerHasNoVotingPower","inputs":[]},{"type":"error","name":"CallerNotAdmin","inputs":[]},{"type":"error","name":"CallerNotToad","inputs":[]},{"type":"error","name":"EmptyArrayNotAllowed","inputs":[]},{"type":"error","name":"MemberHasNoVotingPower","inputs":[]},{"type":"error","name":"NoProposalsToAnswer","inputs":[]},{"type":"error","name":"NoProposalsToClear","inputs":[]},{"type":"error","name":"ProposalIndexOutOfBounds","inputs":[]},{"type":"error","name":"ProposalNotActiveForAnswering","inputs":[]},{"type":"error","name":"ProposalNotActiveForDisabling","inputs":[]},{"type":"error","name":"ProposalStillActive","inputs":[]},{"type":"error","name":"ResultsAlreadyAnnounced","inputs":[]},{"type":"error","name":"TallyGovernorNotSet","inputs":[]},{"type":"error","name":"ValidBlockIntervalMustBeGreaterThanZero","inputs":[]},{"type":"error","name":"ZeroAddressNotAllowed","inputs":[]}],"bytecode":{"object":"0x608060405234801562000010575f80fd5b50604051620028bb380380620028bb833981016040819052620000339162000096565b6001600160a01b0381166200005b576040516342bcdf7f60e11b815260040160405180910390fd5b60038054336001600160a01b031991821617909155600280549091166001600160a01b039290921691909117905562015180600155620000c5565b5f60208284031215620000a7575f80fd5b81516001600160a01b0381168114620000be575f80fd5b9392505050565b6127e880620000d35f395ff3fe608060405234801561000f575f80fd5b5060043610610153575f3560e01c8063a230c524116100bf578063dec45df211610079578063dec45df214610345578063e719427814610358578063ee0708051461036b578063f758a86d1461037f578063f851a44014610392578063ff0fc0c9146103a5575f80fd5b8063a230c5241461026f578063a9b4563c14610292578063ae7c8116146102a5578063c6311e3f146102f3578063c7f758a814610312578063ce11f2bb14610332575f80fd5b8063529bb74611610110578063529bb746146101e15780636a832c3c146101f8578063704b6c02146102235780637509211414610236578063895ccf53146102495780639eb7a5f21461025c575f80fd5b80631525048f146101575780632e9a26141461016c578063306750bd1461017f5780633432c44f146101925780633ceeb85d146101bb57806345731fc8146101ce575b5f80fd5b61016a610165366004612061565b6103b8565b005b61016a61017a366004612061565b610410565b61016a61018d36600461214c565b610574565b6101a56101a03660046121ac565b610721565b6040516101b291906121e6565b60405180910390f35b61016a6101c9366004612061565b61098f565b61016a6101dc366004612306565b610a1b565b6101ea60015481565b6040519081526020016101b2565b60025461020b906001600160a01b031681565b6040516001600160a01b0390911681526020016101b2565b61016a6102313660046123fa565b610ba8565b60045461020b906001600160a01b031681565b61016a6102573660046123fa565b610c63565b61016a61026a3660046121ac565b610d1e565b61028261027d3660046123fa565b610e30565b60405190151581526020016101b2565b6102826102a03660046123fa565b610f6c565b6102dc6102b336600461241c565b600660209081525f92835260408084209091529082529020805460019091015460ff9091169082565b6040805192151583526020830191909152016101b2565b6101ea610301366004612061565b60056020525f908152604090205481565b610325610320366004612061565b6110a8565b6040516101b291906124c1565b61016a6103403660046121ac565b61122d565b61016a6103533660046123fa565b611689565b61016a6103663660046121ac565b611744565b60025461028290600160a01b900460ff1681565b61016a61038d36600461253c565b611b72565b60035461020b906001600160a01b031681565b61016a6103b3366004612061565b611fb4565b6002546001600160a01b031633146103e3576040516355ca80f160e11b815260040160405180910390fd5b5f54811061040457604051631dbf54d360e31b815260040160405180910390fd5b61040d81610410565b50565b6002546001600160a01b0316331461043b576040516355ca80f160e11b815260040160405180910390fd5b5f8054900361045d5760405163c9728d0360e01b815260040160405180910390fd5b5f54811061047e57604051631dbf54d360e31b815260040160405180910390fd5b5f80828154811061049157610491612580565b905f5260205f2090600802019050806006015443116104c357604051630e6c500560e31b815260040160405180910390fd5b80545f8054849081106104d8576104d8612580565b5f9182526020822060089091020181815560018101805460ff19169055906105036002830182612017565b505f60038201819055600482018190556005808301829055600683018290556007909201805460ff191690558281526020918252604080822091909155518281527f36a3a1d8b511920ea8ee33b418cd9d16939971201eb71b178a38e3f93c52f938910160405180910390a1505050565b6002546001600160a01b0316331461059f576040516355ca80f160e11b815260040160405180910390fd5b80518251146105c15760405163587543d160e01b815260040160405180910390fd5b5f541561060f575f5b5f5481101561060d575f81815481106105e5576105e5612580565b905f5260205f2090600802016006015443111561060557610605816103b8565b6001016105ca565b505b5f5b825181101561071c575f8054600181018255908052835160089091027f290decd9548b62a8d60345a988386fc84ba6bc95484008f6362f93160ef3e563019084908390811061066257610662612580565b602090810291909101015181556001808201805460ff1916600217905543600383018190559054610692916125a8565b600482015582518390839081106106ab576106ab612580565b6020026020010151436106be91906125a8565b600682015560078101805460ff191690555f60058201819055546106e4906001906125c1565b60055f8685815181106106f9576106f9612580565b60209081029190910181015182528101919091526040015f205550600101610611565b505050565b606081515f0361074457604051630a132f2160e11b815260040160405180910390fd5b815167ffffffffffffffff81111561075e5761075e612078565b604051908082528060200260200182016040528015610787578160200160208202803683370190505b5090505f5b8251811015610989575f60055f8584815181106107ab576107ab612580565b602002602001015181526020019081526020015f205490505f8054905081106107e757604051631dbf54d360e31b815260040160405180910390fd5b5f81815481106107f9576107f9612580565b905f5260205f209060080201600401544311610838575f83838151811061082257610822612580565b9115156020928302919091019091015250610981565b5f60045f9054906101000a90046001600160a01b03166001600160a01b031663fc0c546a6040518163ffffffff1660e01b8152600401602060405180830381865afa158015610889573d5f803e3d5ffd5b505050506040513d601f19601f820116820180604052508101906108ad91906125d4565b6002546040516309ab24eb60e41b81526001600160a01b039182166004820152911690639ab24eb090602401602060405180830381865afa1580156108f4573d5f803e3d5ffd5b505050506040513d601f19601f8201168201806040525081019061091891906125ef565b90505f80838154811061092d5761092d612580565b905f5260205f20906008020160050154905060028261094c9190612606565b811161095957600161095b565b5f5b85858151811061096d5761096d612580565b911515602092830291909101909101525050505b60010161078c565b50919050565b6003546001600160a01b031633146109ba5760405163036c8cf960e11b815260040160405180910390fd5b805f036109da57604051632dc3146560e21b815260040160405180910390fd5b60015460408051918252602082018390527fd1a78b8a588d3c50255f3f4651cba1fbf36eee5bc0ef65a97063255db054dafb910160405180910390a1600155565b6002546001600160a01b03163314610a46576040516355ca80f160e11b815260040160405180910390fd5b5f80549003610a68576040516321eb230560e21b815260040160405180910390fd5b8151835114610a8a5760405163587543d160e01b815260040160405180910390fd5b8051835114610aac5760405163587543d160e01b815260040160405180910390fd5b5f5b8351811015610ba2575f60055f868481518110610acd57610acd612580565b602002602001015181526020019081526020015f205490505f808281548110610af857610af8612580565b905f5260205f209060080201905080600401544310610b2a57604051639a8a9d5560e01b815260040160405180910390fd5b848381518110610b3c57610b3c612580565b6020026020010151816001015f6101000a81548160ff02191690836002811115610b6857610b6861244a565b0217905550838381518110610b7f57610b7f612580565b6020026020010151816002019081610b97919061269b565b505050600101610aae565b50505050565b6003546001600160a01b03163314610bd35760405163036c8cf960e11b815260040160405180910390fd5b6001600160a01b038116610bfa576040516342bcdf7f60e11b815260040160405180910390fd5b600354604080516001600160a01b03928316815291831660208301527f7e644d79422f17c01e4894b5f4f588d331ebfa28653d42ae832dc59e38c9798f910160405180910390a1600380546001600160a01b0319166001600160a01b0392909216919091179055565b6003546001600160a01b03163314610c8e5760405163036c8cf960e11b815260040160405180910390fd5b6001600160a01b038116610cb5576040516342bcdf7f60e11b815260040160405180910390fd5b600254604080516001600160a01b03928316815291831660208301527f0eb8852de2c80499ebd4bb59bbe455a85d5ce47bd310236f0e025f5c2cd38b1b910160405180910390a1600280546001600160a01b0319166001600160a01b0392909216919091179055565b6002546001600160a01b03163314610d49576040516355ca80f160e11b815260040160405180910390fd5b5f5b8151811015610e2c575f60055f848481518110610d6a57610d6a612580565b602002602001015181526020019081526020015f205490505f808281548110610d9557610d95612580565b5f9182526020909120600890910201600781015490915060ff1615610dcd5760405163059f169d60e41b815260040160405180910390fd5b805460018201546040517f1543ace2cc7bdf4f64e0bea7f31f4697609dc6d781606cabf5567b6c4325c48c91610e089160ff9091169061275b565b60405180910390a2600701805460ff19166001908117909155919091019050610d4b565b5050565b6004545f906001600160a01b0316610e5b57604051633703fab160e21b815260040160405180910390fd5b6001600160a01b038216610e82576040516342bcdf7f60e11b815260040160405180910390fd5b6002546004805460408051637e062a3560e11b815290516001600160a01b03948516949092169263fc0c546a9282820192602092908290030181865afa158015610ece573d5f803e3d5ffd5b505050506040513d601f19601f82011682018060405250810190610ef291906125d4565b604051632c3e6f0f60e11b81526001600160a01b038581166004830152919091169063587cde1e90602401602060405180830381865afa158015610f38573d5f803e3d5ffd5b505050506040513d601f19601f82011682018060405250810190610f5c91906125d4565b6001600160a01b03161492915050565b6004545f906001600160a01b0316610f9757604051633703fab160e21b815260040160405180910390fd5b6001600160a01b038216610fbe576040516342bcdf7f60e11b815260040160405180910390fd5b5f60045f9054906101000a90046001600160a01b03166001600160a01b031663fc0c546a6040518163ffffffff1660e01b8152600401602060405180830381865afa15801561100f573d5f803e3d5ffd5b505050506040513d601f19601f8201168201806040525081019061103391906125d4565b6040516309ab24eb60e41b81526001600160a01b0385811660048301529192505f91831690639ab24eb090602401602060405180830381865afa15801561107c573d5f803e3d5ffd5b505050506040513d601f19601f820116820180604052508101906110a091906125ef565b119392505050565b6110ed6040805161010081019091525f80825260208201908152602001606081526020015f81526020015f81526020015f81526020015f81526020015f151581525090565b5f82815260056020526040812054815490919081908390811061111257611112612580565b905f5260205f2090600802019050604051806101000160405280825f01548152602001826001015f9054906101000a900460ff1660028111156111575761115761244a565b815260200182600201805461116b90612625565b80601f016020809104026020016040519081016040528092919081815260200182805461119790612625565b80156111e25780601f106111b9576101008083540402835291602001916111e2565b820191905f5260205f20905b8154815290600101906020018083116111c557829003601f168201915b50505091835250506003830154602082015260048301546040820152600583015460608201526006830154608082015260079092015460ff16151560a0909201919091529392505050565b6002546001600160a01b03163314611258576040516355ca80f160e11b815260040160405180910390fd5b80515f0361127957604051630a132f2160e11b815260040160405180910390fd5b5f61128382610721565b90505f5b82518110156112cf578181815181106112a2576112a2612580565b60200260200101516112c757604051639a8a9d5560e01b815260040160405180910390fd5b600101611287565b505f825167ffffffffffffffff8111156112eb576112eb612078565b604051908082528060200260200182016040528015611314578160200160208202803683370190505b5090505f835167ffffffffffffffff81111561133257611332612078565b60405190808252806020026020018201604052801561136557816020015b60608152602001906001900390816113505790505b5090505f5b84518110156114c6575f60055f87848151811061138957611389612580565b602002602001015181526020019081526020015f205490505f8082815481106113b4576113b4612580565b905f5260205f2090600802019050806001015f9054906101000a900460ff168584815181106113e5576113e5612580565b602002602001019060028111156113fe576113fe61244a565b908160028111156114115761141161244a565b90525060028101805461142390612625565b80601f016020809104026020016040519081016040528092919081815260200182805461144f90612625565b801561149a5780601f106114715761010080835404028352916020019161149a565b820191905f5260205f20905b81548152906001019060200180831161147d57829003601f168201915b50505050508484815181106114b1576114b1612580565b6020908102919091010152505060010161136a565b505f5b8451811015611682575f60018483815181106114e7576114e7612580565b602002602001015160028111156115005761150061244a565b0361150d57506001611549565b5f84838151811061152057611520612580565b602002602001015160028111156115395761153961244a565b0361154557505f611549565b5060025b60045486516001600160a01b0390911690637b3c71d39088908590811061157257611572612580565b60200260200101518386868151811061158d5761158d612580565b60200260200101516040518463ffffffff1660e01b81526004016115b393929190612769565b6020604051808303815f875af11580156115cf573d5f803e3d5ffd5b505050506040513d601f19601f820116820180604052508101906115f391906125ef565b5085828151811061160657611606612580565b60200260200101517ff32f6d145e8e4dc0c0084b1382f3f394be9c4ba5fe630fb91177e30e441ab37e85848151811061164157611641612580565b602002602001015185858151811061165b5761165b612580565b6020026020010151604051611671929190612793565b60405180910390a2506001016114c9565b5050505050565b6003546001600160a01b031633146116b45760405163036c8cf960e11b815260040160405180910390fd5b6001600160a01b0381166116db576040516342bcdf7f60e11b815260040160405180910390fd5b600454604080516001600160a01b03928316815291831660208301527f6917fdc3c398926bf1b605ba131d9b099995c600bdee588cee456cc89dc8edba910160405180910390a1600480546001600160a01b0319166001600160a01b0392909216919091179055565b33611762576040516342bcdf7f60e11b815260040160405180910390fd5b61176b33610f6c565b61178857604051633b9df69560e01b815260040160405180910390fd5b5f60045f9054906101000a90046001600160a01b03166001600160a01b031663fc0c546a6040518163ffffffff1660e01b8152600401602060405180830381865afa1580156117d9573d5f803e3d5ffd5b505050506040513d601f19601f820116820180604052508101906117fd91906125d4565b6040516309ab24eb60e41b81523360048201526001600160a01b039190911690639ab24eb090602401602060405180830381865afa158015611841573d5f803e3d5ffd5b505050506040513d601f19601f8201168201806040525081019061186591906125ef565b90505f5b825181101561071c575f60055f85848151811061188857611888612580565b602002602001015181526020019081526020015f205490505f8054905081106118c457604051631dbf54d360e31b815260040160405180910390fd5b5f8082815481106118d7576118d7612580565b905f5260205f209060080201604051806101000160405290815f8201548152602001600182015f9054906101000a900460ff16600281111561191b5761191b61244a565b600281111561192c5761192c61244a565b815260200160028201805461194090612625565b80601f016020809104026020016040519081016040528092919081815260200182805461196c90612625565b80156119b75780601f1061198e576101008083540402835291602001916119b7565b820191905f5260205f20905b81548152906001019060200180831161199a57829003601f168201915b5050509183525050600382015460208201526004820154604082015260058201546060820152600682015460808083019190915260079092015460ff16151560a0909101528101519091504310611a2157604051631973a3eb60e01b815260040160405180910390fd5b5f60065f878681518110611a3757611a37612580565b602002602001015181526020019081526020015f205f336001600160a01b03166001600160a01b031681526020019081526020015f20600101541115611a9057604051633f88ab0560e11b815260040160405180910390fd5b60405180604001604052805f151581526020018581525060065f878681518110611abc57611abc612580565b60209081029190910181015182528181019290925260409081015f9081203382528352208251815460ff191690151517815591015160019091015584517fd76e2875be0b8cdf68c72d99b67e3625455540bfc433467e84cd613b172cd89490869085908110611b2d57611b2d612580565b60200260200101513386604051611b60939291909283526001600160a01b03919091166020830152604082015260600190565b60405180910390a15050600101611869565b6001600160a01b038116611b99576040516342bcdf7f60e11b815260040160405180910390fd5b5f5b825181101561071c5760065f848381518110611bb957611bb9612580565b602002602001015181526020019081526020015f205f836001600160a01b03166001600160a01b031681526020019081526020015f20600101545f03611c1257604051630114621d60e31b815260040160405180910390fd5b5f60055f858481518110611c2857611c28612580565b602002602001015181526020019081526020015f205490505f805490508110611c6457604051631dbf54d360e31b815260040160405180910390fd5b5f808281548110611c7757611c77612580565b905f5260205f209060080201905060065f868581518110611c9a57611c9a612580565b60209081029190910181015182528181019290925260409081015f9081206001600160a01b038816825290925290205460ff16158015611cde5750611cde84610e30565b15611da55760065f868581518110611cf857611cf8612580565b602002602001015181526020019081526020015f205f856001600160a01b03166001600160a01b031681526020019081526020015f2060010154816005015f828254611d4491906125a8565b92505081905550600160065f878681518110611d6257611d62612580565b60209081029190910181015182528181019290925260409081015f9081206001600160a01b03891682529092529020805460ff1916911515919091179055611faa565b60065f868581518110611dba57611dba612580565b60209081029190910181015182528181019290925260409081015f9081206001600160a01b038816825290925290205460ff1615156001148015611e045750611e0284610e30565b155b15611e875760065f868581518110611e1e57611e1e612580565b602002602001015181526020019081526020015f205f856001600160a01b03166001600160a01b031681526020019081526020015f2060010154816005015f828254611e6a91906125c1565b925050819055505f60065f878681518110611d6257611d62612580565b60065f868581518110611e9c57611e9c612580565b60209081029190910181015182528181019290925260409081015f9081206001600160a01b038816825290925290205460ff1615156001148015611ee85750336001600160a01b038516145b15611faa5760065f868581518110611f0257611f02612580565b602002602001015181526020019081526020015f205f856001600160a01b03166001600160a01b031681526020019081526020015f2060010154816005015f828254611f4e91906125c1565b925050819055505f60065f878681518110611f6b57611f6b612580565b60209081029190910181015182528181019290925260409081015f9081206001600160a01b03891682529092529020805460ff19169115159190911790555b5050600101611b9b565b6002546001600160a01b03163314611fdf576040516355ca80f160e11b815260040160405180910390fd5b5f818152600560205260408120549054811061200e57604051631dbf54d360e31b815260040160405180910390fd5b610e2c81610410565b50805461202390612625565b5f825580601f10612032575050565b601f0160209004905f5260205f209081019061040d91905b8082111561205d575f815560010161204a565b5090565b5f60208284031215612071575f80fd5b5035919050565b634e487b7160e01b5f52604160045260245ffd5b604051601f8201601f1916810167ffffffffffffffff811182821017156120b5576120b5612078565b604052919050565b5f67ffffffffffffffff8211156120d6576120d6612078565b5060051b60200190565b5f82601f8301126120ef575f80fd5b813560206121046120ff836120bd565b61208c565b8083825260208201915060208460051b870101935086841115612125575f80fd5b602086015b84811015612141578035835291830191830161212a565b509695505050505050565b5f806040838503121561215d575f80fd5b823567ffffffffffffffff80821115612174575f80fd5b612180868387016120e0565b93506020850135915080821115612195575f80fd5b506121a2858286016120e0565b9150509250929050565b5f602082840312156121bc575f80fd5b813567ffffffffffffffff8111156121d2575f80fd5b6121de848285016120e0565b949350505050565b602080825282518282018190525f9190848201906040850190845b8181101561221f578351151583529284019291840191600101612201565b50909695505050505050565b5f601f83601f84011261223c575f80fd5b8235602061224c6120ff836120bd565b82815260059290921b8501810191818101908784111561226a575f80fd5b8287015b848110156122fa57803567ffffffffffffffff8082111561228d575f80fd5b818a0191508a603f8301126122a0575f80fd5b858201356040828211156122b6576122b6612078565b6122c7828b01601f1916890161208c565b92508183528c818386010111156122dc575f80fd5b8181850189850137505f90820187015284525091830191830161226e565b50979650505050505050565b5f805f60608486031215612318575f80fd5b833567ffffffffffffffff8082111561232f575f80fd5b61233b878388016120e0565b9450602091508186013581811115612351575f80fd5b8601601f81018813612361575f80fd5b803561236f6120ff826120bd565b81815260059190911b8201840190848101908a83111561238d575f80fd5b928501925b828410156123b7578335600381106123a8575f80fd5b82529285019290850190612392565b965050505060408601359150808211156123cf575f80fd5b506123dc8682870161222b565b9150509250925092565b6001600160a01b038116811461040d575f80fd5b5f6020828403121561240a575f80fd5b8135612415816123e6565b9392505050565b5f806040838503121561242d575f80fd5b82359150602083013561243f816123e6565b809150509250929050565b634e487b7160e01b5f52602160045260245ffd5b6003811061247a57634e487b7160e01b5f52602160045260245ffd5b9052565b5f81518084525f5b818110156124a257602081850181015186830182015201612486565b505f602082860101526020601f19601f83011685010191505092915050565b60208152815160208201525f60208301516124df604084018261245e565b5060408301516101008060608501526124fc61012085018361247e565b915060608501516080850152608085015160a085015260a085015160c085015260c085015160e085015260e0850151151581850152508091505092915050565b5f806040838503121561254d575f80fd5b823567ffffffffffffffff811115612563575f80fd5b61256f858286016120e0565b925050602083013561243f816123e6565b634e487b7160e01b5f52603260045260245ffd5b634e487b7160e01b5f52601160045260245ffd5b808201808211156125bb576125bb612594565b92915050565b818103818111156125bb576125bb612594565b5f602082840312156125e4575f80fd5b8151612415816123e6565b5f602082840312156125ff575f80fd5b5051919050565b5f8261262057634e487b7160e01b5f52601260045260245ffd5b500490565b600181811c9082168061263957607f821691505b60208210810361098957634e487b7160e01b5f52602260045260245ffd5b601f82111561071c57805f5260205f20601f840160051c8101602085101561267c5750805b601f840160051c820191505b81811015611682575f8155600101612688565b815167ffffffffffffffff8111156126b5576126b5612078565b6126c9816126c38454612625565b84612657565b602080601f8311600181146126fc575f84156126e55750858301515b5f19600386901b1c1916600185901b178555612753565b5f85815260208120601f198616915b8281101561272a5788860151825594840194600190910190840161270b565b508582101561274757878501515f19600388901b60f8161c191681555b505060018460011b0185555b505050505050565b602081016125bb828461245e565b83815260ff83166020820152606060408201525f61278a606083018461247e565b95945050505050565b61279d818461245e565b604060208201525f6121de604083018461247e56fea264697066735822122007a0d6b6104a9b28d14dad913acc71a74084d1bad785a97b067b36cf6f49f1fd64736f6c63430008180033","linkReferences":{}},"methodIdentifiers":{"_clearProposal(uint256)":"2e9a2614","admin()":"f851a440","announceResults(uint256[])":"9eb7a5f2","answer(uint256[],uint8[],string[])":"45731fc8","canVote(uint256[])":"3432c44f","clearProposalByIndex(uint256)":"1525048f","clearProposalByTallyId(uint256)":"ff0fc0c9","disabled()":"ee070805","discoverProposals(uint256[],uint256[])":"306750bd","getProposal(uint256)":"c7f758a8","hasVotingPower(address)":"a9b4563c","isMember(address)":"a230c524","proposalDisablerList(uint256,address)":"ae7c8116","proposalList(uint256)":"c6311e3f","setAdmin(address)":"704b6c02","setDisablePower(uint256[])":"e7194278","setTallyGovernor(address)":"dec45df2","setToad(address)":"895ccf53","setValidBlockInterval(uint256)":"3ceeb85d","tallyGovernor()":"75092114","toad()":"6a832c3c","toggle(uint256[],address)":"f758a86d","validBlockInterval()":"529bb746","vote(uint256[])":"ce11f2bb"},"id":59}