{"abi":[{"type":"constructor","inputs":[{"name":"_toad","type":"address","internalType":"address"}],"stateMutability":"nonpayable"},{"type":"function","name":"_clearProposal","inputs":[{"name":"_index","type":"uint96","internalType":"uint96"}],"outputs":[],"stateMutability":"nonpayable"},{"type":"function","name":"admin","inputs":[],"outputs":[{"name":"","type":"address","internalType":"address"}],"stateMutability":"view"},{"type":"function","name":"announceResults","inputs":[{"name":"_tallyIds","type":"uint96[]","internalType":"uint96[]"}],"outputs":[],"stateMutability":"nonpayable"},{"type":"function","name":"answer","inputs":[{"name":"_tallyIds","type":"uint96[]","internalType":"uint96[]"},{"name":"_answers","type":"uint8[]","internalType":"uint8[]"}],"outputs":[],"stateMutability":"nonpayable"},{"type":"function","name":"canVote","inputs":[{"name":"_tallyIds","type":"uint96[]","internalType":"uint96[]"}],"outputs":[{"name":"results","type":"bool[]","internalType":"bool[]"}],"stateMutability":"view"},{"type":"function","name":"clearProposalByIndex","inputs":[{"name":"_index","type":"uint96","internalType":"uint96"}],"outputs":[],"stateMutability":"nonpayable"},{"type":"function","name":"clearProposalByTallyId","inputs":[{"name":"_tallyId","type":"uint96","internalType":"uint96"}],"outputs":[],"stateMutability":"nonpayable"},{"type":"function","name":"disabled","inputs":[],"outputs":[{"name":"","type":"bool","internalType":"bool"}],"stateMutability":"view"},{"type":"function","name":"discoverProposals","inputs":[{"name":"_tallyIds","type":"uint96[]","internalType":"uint96[]"},{"name":"_votingPeriods","type":"uint96[]","internalType":"uint96[]"}],"outputs":[],"stateMutability":"nonpayable"},{"type":"function","name":"getProposal","inputs":[{"name":"_tallyId","type":"uint96","internalType":"uint96"}],"outputs":[{"name":"","type":"tuple","internalType":"struct ProposalView","components":[{"name":"tallyId","type":"uint96","internalType":"uint96"},{"name":"discoveredAt","type":"uint96","internalType":"uint96"},{"name":"validBlock","type":"uint96","internalType":"uint96"},{"name":"votingPeriod","type":"uint96","internalType":"uint96"},{"name":"disablePower","type":"uint96","internalType":"uint96"},{"name":"answer","type":"uint8","internalType":"uint8"},{"name":"announced","type":"bool","internalType":"bool"}]}],"stateMutability":"view"},{"type":"function","name":"hasVotingPower","inputs":[{"name":"_address","type":"address","internalType":"address"}],"outputs":[{"name":"","type":"bool","internalType":"bool"}],"stateMutability":"view"},{"type":"function","name":"isMember","inputs":[{"name":"_address","type":"address","internalType":"address"}],"outputs":[{"name":"","type":"bool","internalType":"bool"}],"stateMutability":"view"},{"type":"function","name":"proposalDisablerList","inputs":[{"name":"","type":"uint96","internalType":"uint96"},{"name":"","type":"address","internalType":"address"}],"outputs":[{"name":"confirmed","type":"bool","internalType":"bool"},{"name":"votingPower","type":"uint96","internalType":"uint96"}],"stateMutability":"view"},{"type":"function","name":"proposalList","inputs":[{"name":"","type":"uint96","internalType":"uint96"}],"outputs":[{"name":"","type":"uint96","internalType":"uint96"}],"stateMutability":"view"},{"type":"function","name":"setAdmin","inputs":[{"name":"_admin","type":"address","internalType":"address"}],"outputs":[],"stateMutability":"nonpayable"},{"type":"function","name":"setDisablePower","inputs":[{"name":"_tallyIds","type":"uint96[]","internalType":"uint96[]"}],"outputs":[],"stateMutability":"nonpayable"},{"type":"function","name":"setTallyGovernor","inputs":[{"name":"_tallyGovernor","type":"address","internalType":"address"}],"outputs":[],"stateMutability":"nonpayable"},{"type":"function","name":"setToad","inputs":[{"name":"_toad","type":"address","internalType":"address"}],"outputs":[],"stateMutability":"nonpayable"},{"type":"function","name":"setValidBlockInterval","inputs":[{"name":"_validBlockInterval","type":"uint96","internalType":"uint96"}],"outputs":[],"stateMutability":"nonpayable"},{"type":"function","name":"tallyGovernor","inputs":[],"outputs":[{"name":"","type":"address","internalType":"contract GovernorVotes"}],"stateMutability":"view"},{"type":"function","name":"toad","inputs":[],"outputs":[{"name":"","type":"address","internalType":"address"}],"stateMutability":"view"},{"type":"function","name":"toggle","inputs":[{"name":"_tallyIds","type":"uint96[]","internalType":"uint96[]"},{"name":"_member","type":"address","internalType":"address"}],"outputs":[],"stateMutability":"nonpayable"},{"type":"function","name":"validBlockInterval","inputs":[],"outputs":[{"name":"","type":"uint96","internalType":"uint96"}],"stateMutability":"view"},{"type":"event","name":"AdminChanged","inputs":[{"name":"oldAdmin","type":"address","indexed":true,"internalType":"address"},{"name":"newAdmin","type":"address","indexed":true,"internalType":"address"}],"anonymous":false},{"type":"event","name":"DisablerAdded","inputs":[{"name":"tallyId","type":"uint96","indexed":true,"internalType":"uint96"},{"name":"disabler","type":"address","indexed":true,"internalType":"address"},{"name":"votingPower","type":"uint96","indexed":false,"internalType":"uint96"}],"anonymous":false},{"type":"event","name":"ProposalCleared","inputs":[{"name":"tallyId","type":"uint96","indexed":true,"internalType":"uint96"}],"anonymous":false},{"type":"event","name":"ResultsAnnounced","inputs":[{"name":"tallyId","type":"uint96","indexed":true,"internalType":"uint96"},{"name":"answer","type":"uint8","indexed":false,"internalType":"uint8"}],"anonymous":false},{"type":"event","name":"TallyGovernorChanged","inputs":[{"name":"oldTallyGovernor","type":"address","indexed":true,"internalType":"address"},{"name":"newTallyGovernor","type":"address","indexed":true,"internalType":"address"}],"anonymous":false},{"type":"event","name":"ToadChanged","inputs":[{"name":"oldToad","type":"address","indexed":true,"internalType":"address"},{"name":"newToad","type":"address","indexed":true,"internalType":"address"}],"anonymous":false},{"type":"event","name":"ValidBlockIntervalChanged","inputs":[{"name":"oldValidBlockInterval","type":"uint96","indexed":true,"internalType":"uint96"},{"name":"newValidBlockInterval","type":"uint96","indexed":true,"internalType":"uint96"}],"anonymous":false},{"type":"error","name":"ArrayLengthsMustMatch","inputs":[]},{"type":"error","name":"CallerAlreadyDisablingProposal","inputs":[]},{"type":"error","name":"CallerHasNoVotingPower","inputs":[]},{"type":"error","name":"CallerNotAdmin","inputs":[]},{"type":"error","name":"CallerNotToad","inputs":[]},{"type":"error","name":"EmptyArrayNotAllowed","inputs":[]},{"type":"error","name":"MemberHasNoVotingPower","inputs":[]},{"type":"error","name":"NoProposalsToAnswer","inputs":[]},{"type":"error","name":"NoProposalsToClear","inputs":[]},{"type":"error","name":"ProposalIndexOutOfBounds","inputs":[]},{"type":"error","name":"ProposalNotActiveForAnswering","inputs":[]},{"type":"error","name":"ProposalNotActiveForDisabling","inputs":[]},{"type":"error","name":"ProposalStillActive","inputs":[]},{"type":"error","name":"ResultsAlreadyAnnounced","inputs":[]},{"type":"error","name":"TallyGovernorNotSet","inputs":[]},{"type":"error","name":"ValidBlockIntervalMustBeGreaterThanZero","inputs":[]},{"type":"error","name":"ZeroAddressNotAllowed","inputs":[]}],"bytecode":{"object":"0x608060405234801562000010575f80fd5b5060405162003d0f38038062003d0f8339818101604052810190620000369190620001bd565b5f73ffffffffffffffffffffffffffffffffffffffff168173ffffffffffffffffffffffffffffffffffffffff16036200009c576040517f8579befe00000000000000000000000000000000000000000000000000000000815260040160405180910390fd5b33600260016101000a81548173ffffffffffffffffffffffffffffffffffffffff021916908373ffffffffffffffffffffffffffffffffffffffff160217905550806001600c6101000a81548173ffffffffffffffffffffffffffffffffffffffff021916908373ffffffffffffffffffffffffffffffffffffffff1602179055506201518060015f6101000a8154816bffffffffffffffffffffffff02191690836bffffffffffffffffffffffff16021790555050620001ed565b5f80fd5b5f73ffffffffffffffffffffffffffffffffffffffff82169050919050565b5f62000187826200015c565b9050919050565b62000199816200017b565b8114620001a4575f80fd5b50565b5f81519050620001b7816200018e565b92915050565b5f60208284031215620001d557620001d462000158565b5b5f620001e484828501620001a7565b91505092915050565b613b1480620001fb5f395ff3fe608060405234801561000f575f80fd5b506004361061014b575f3560e01c8063782bddbe116100c1578063b75be3dd1161007a578063b75be3dd14610396578063bd3c0e04146103b2578063c4daf36c146103ce578063dec45df2146103fe578063ee0708051461041a578063f851a440146104385761014b565b8063782bddbe146102c6578063895ccf53146102e257806391dd273d146102fe578063a14a4a511461031a578063a230c52414610336578063a9b4563c146103665761014b565b806343b3290b1161011357806343b3290b14610218578063529bb7461461023457806360ec1cf1146102525780636a832c3c1461026e578063704b6c021461028c57806375092114146102a85761014b565b8063181abbc21461014f578063197c5f431461016b578063370daca51461019b57806337e28c5a146101cb5780633ceb5528146101e7575b5f80fd5b610169600480360381019061016491906131b0565b610456565b005b6101856004803603810190610180919061323c565b6106c2565b6040516101929190613337565b60405180910390f35b6101b560048036038101906101b091906131b0565b6108bd565b6040516101c291906133f8565b60405180910390f35b6101e560048036038101906101e091906131b0565b610c69565b005b61020160048036038101906101fc9190613472565b611335565b60405161020f9291906134ce565b60405180910390f35b610232600480360381019061022d919061323c565b611383565b005b61023c6114aa565b60405161024991906134f5565b60405180910390f35b61026c6004803603810190610267919061350e565b6114c7565b005b6102766118ba565b604051610283919061359b565b60405180910390f35b6102a660048036038101906102a191906135b4565b6118e0565b005b6102b0611a8c565b6040516102bd919061363a565b60405180910390f35b6102e060048036038101906102db919061323c565b611ab1565b005b6102fc60048036038101906102f791906135b4565b611df4565b005b6103186004803603810190610313919061323c565b611fa0565b005b610334600480360381019061032f9190613653565b612104565b005b610350600480360381019061034b91906135b4565b61264a565b60405161035d91906136b0565b60405180910390f35b610380600480360381019061037b91906135b4565b612892565b60405161038d91906136b0565b60405180910390f35b6103b060048036038101906103ab919061371e565b612b12565b005b6103cc60048036038101906103c7919061323c565b612dde565b005b6103e860048036038101906103e3919061323c565b612ebc565b6040516103f591906134f5565b60405180910390f35b610418600480360381019061041391906135b4565b612ee4565b005b61042261308e565b60405161042f91906136b0565b60405180910390f35b6104406130a0565b60405161044d919061359b565b60405180910390f35b6001600c9054906101000a900473ffffffffffffffffffffffffffffffffffffffff1673ffffffffffffffffffffffffffffffffffffffff163373ffffffffffffffffffffffffffffffffffffffff16146104dd576040517fab9501e200000000000000000000000000000000000000000000000000000000815260040160405180910390fd5b5f8282905090505f5b818110156106bc575f60045f8686858181106105055761050461379c565b5b905060200201602081019061051a919061323c565b6bffffffffffffffffffffffff166bffffffffffffffffffffffff1681526020019081526020015f205f9054906101000a90046bffffffffffffffffffffffff1690505f80549050816bffffffffffffffffffffffff16106105a8576040517fedfaa69800000000000000000000000000000000000000000000000000000000815260040160405180910390fd5b5f80826bffffffffffffffffffffffff16815481106105ca576105c961379c565b5b905f5260205f209060030201905080600201600d9054906101000a900460ff1615610621576040517f59f169d000000000000000000000000000000000000000000000000000000000815260040160405180910390fd5b805f015f9054906101000a90046bffffffffffffffffffffffff166bffffffffffffffffffffffff167faf027c0e9f959cec25861d46019836b2eeca7927a36c3ac0549e13d0110fdf7382600201600c9054906101000a900460ff1660405161068a91906137d8565b60405180910390a2600181600201600d6101000a81548160ff02191690831515021790555082600101925050506104e6565b50505050565b6106ca6130c6565b5f60045f846bffffffffffffffffffffffff166bffffffffffffffffffffffff1681526020019081526020015f205f9054906101000a90046bffffffffffffffffffffffff1690505f80549050816bffffffffffffffffffffffff161061075d576040517fedfaa69800000000000000000000000000000000000000000000000000000000815260040160405180910390fd5b5f80826bffffffffffffffffffffffff168154811061077f5761077e61379c565b5b905f5260205f20906003020190506040518060e00160405280825f015f9054906101000a90046bffffffffffffffffffffffff166bffffffffffffffffffffffff168152602001825f01600c9054906101000a90046bffffffffffffffffffffffff166bffffffffffffffffffffffff168152602001826001015f9054906101000a90046bffffffffffffffffffffffff166bffffffffffffffffffffffff16815260200182600101600c9054906101000a90046bffffffffffffffffffffffff166bffffffffffffffffffffffff168152602001826002015f9054906101000a90046bffffffffffffffffffffffff166bffffffffffffffffffffffff16815260200182600201600c9054906101000a900460ff1660ff16815260200182600201600d9054906101000a900460ff16151581525092505050919050565b60605f83839050036108fb576040517f14265e4200000000000000000000000000000000000000000000000000000000815260040160405180910390fd5b5f4390505f8484905090508067ffffffffffffffff8111156109205761091f6137f1565b5b60405190808252806020026020018201604052801561094e5781602001602082028036833780820191505090505b5092505f5b81811015610c60575f60045f8888858181106109725761097161379c565b5b9050602002016020810190610987919061323c565b6bffffffffffffffffffffffff166bffffffffffffffffffffffff1681526020019081526020015f205f9054906101000a90046bffffffffffffffffffffffff1690505f80549050816bffffffffffffffffffffffff1610610a15576040517fedfaa69800000000000000000000000000000000000000000000000000000000815260040160405180910390fd5b5f80826bffffffffffffffffffffffff1681548110610a3757610a3661379c565b5b905f5260205f2090600302019050806001015f9054906101000a90046bffffffffffffffffffffffff166bffffffffffffffffffffffff16856bffffffffffffffffffffffff1611610ab6575f868481518110610a9757610a9661379c565b5b6020026020010190151590811515815250508260010192505050610c5b565b5f60035f9054906101000a900473ffffffffffffffffffffffffffffffffffffffff1673ffffffffffffffffffffffffffffffffffffffff1663fc0c546a6040518163ffffffff1660e01b8152600401602060405180830381865afa158015610b21573d5f803e3d5ffd5b505050506040513d601f19601f82011682018060405250810190610b459190613859565b73ffffffffffffffffffffffffffffffffffffffff16639ab24eb06001600c9054906101000a900473ffffffffffffffffffffffffffffffffffffffff166040518263ffffffff1660e01b8152600401610b9f919061359b565b602060405180830381865afa158015610bba573d5f803e3d5ffd5b505050506040513d601f19601f82011682018060405250810190610bde91906138b7565b90505f826002015f9054906101000a90046bffffffffffffffffffffffff169050600282610c0c919061393c565b6bffffffffffffffffffffffff16816bffffffffffffffffffffffff161115888681518110610c3e57610c3d61379c565b5b602002602001019015159081151581525050846001019450505050505b610953565b50505092915050565b5f73ffffffffffffffffffffffffffffffffffffffff163373ffffffffffffffffffffffffffffffffffffffff1603610cce576040517f8579befe00000000000000000000000000000000000000000000000000000000815260040160405180910390fd5b610cd733612892565b610d0d576040517f3b9df69500000000000000000000000000000000000000000000000000000000815260040160405180910390fd5b5f60035f9054906101000a900473ffffffffffffffffffffffffffffffffffffffff1673ffffffffffffffffffffffffffffffffffffffff1663fc0c546a6040518163ffffffff1660e01b8152600401602060405180830381865afa158015610d78573d5f803e3d5ffd5b505050506040513d601f19601f82011682018060405250810190610d9c9190613859565b73ffffffffffffffffffffffffffffffffffffffff16639ab24eb0336040518263ffffffff1660e01b8152600401610dd4919061359b565b602060405180830381865afa158015610def573d5f803e3d5ffd5b505050506040513d601f19601f82011682018060405250810190610e1391906138b7565b90505f816bffffffffffffffffffffffff1603610f325760035f9054906101000a900473ffffffffffffffffffffffffffffffffffffffff1673ffffffffffffffffffffffffffffffffffffffff1663fc0c546a6040518163ffffffff1660e01b8152600401602060405180830381865afa158015610e94573d5f803e3d5ffd5b505050506040513d601f19601f82011682018060405250810190610eb89190613859565b73ffffffffffffffffffffffffffffffffffffffff166370a08231336040518263ffffffff1660e01b8152600401610ef0919061359b565b602060405180830381865afa158015610f0b573d5f803e3d5ffd5b505050506040513d601f19601f82011682018060405250810190610f2f91906138b7565b90505b5f4390505f8484905090505f5b8181101561132d575f60045f888885818110610f5e57610f5d61379c565b5b9050602002016020810190610f73919061323c565b6bffffffffffffffffffffffff166bffffffffffffffffffffffff1681526020019081526020015f205f9054906101000a90046bffffffffffffffffffffffff1690505f80549050816bffffffffffffffffffffffff1610611001576040517fedfaa69800000000000000000000000000000000000000000000000000000000815260040160405180910390fd5b5f80826bffffffffffffffffffffffff16815481106110235761102261379c565b5b905f5260205f2090600302019050806001015f9054906101000a90046bffffffffffffffffffffffff166bffffffffffffffffffffffff16856bffffffffffffffffffffffff16106110a1576040517f1973a3eb00000000000000000000000000000000000000000000000000000000815260040160405180910390fd5b5f60055f8a8a878181106110b8576110b761379c565b5b90506020020160208101906110cd919061323c565b6bffffffffffffffffffffffff166bffffffffffffffffffffffff1681526020019081526020015f205f3373ffffffffffffffffffffffffffffffffffffffff1673ffffffffffffffffffffffffffffffffffffffff1681526020019081526020015f205f0160019054906101000a90046bffffffffffffffffffffffff166bffffffffffffffffffffffff161115611192576040517f7f11560a00000000000000000000000000000000000000000000000000000000815260040160405180910390fd5b60405180604001604052805f15158152602001876bffffffffffffffffffffffff1681525060055f8a8a878181106111cd576111cc61379c565b5b90506020020160208101906111e2919061323c565b6bffffffffffffffffffffffff166bffffffffffffffffffffffff1681526020019081526020015f205f3373ffffffffffffffffffffffffffffffffffffffff1673ffffffffffffffffffffffffffffffffffffffff1681526020019081526020015f205f820151815f015f6101000a81548160ff0219169083151502179055506020820151815f0160016101000a8154816bffffffffffffffffffffffff02191690836bffffffffffffffffffffffff1602179055509050503373ffffffffffffffffffffffffffffffffffffffff168888858181106112c6576112c561379c565b5b90506020020160208101906112db919061323c565b6bffffffffffffffffffffffff167f0a1100824529d1e65dd0ba0c1254a84bea774f7d4186b3b50181f6750521436b8860405161131891906134f5565b60405180910390a38260010192505050610f3f565b505050505050565b6005602052815f5260405f20602052805f5260405f205f9150915050805f015f9054906101000a900460ff1690805f0160019054906101000a90046bffffffffffffffffffffffff16905082565b6001600c9054906101000a900473ffffffffffffffffffffffffffffffffffffffff1673ffffffffffffffffffffffffffffffffffffffff163373ffffffffffffffffffffffffffffffffffffffff161461140a576040517fab9501e200000000000000000000000000000000000000000000000000000000815260040160405180910390fd5b5f60045f836bffffffffffffffffffffffff166bffffffffffffffffffffffff1681526020019081526020015f205f9054906101000a90046bffffffffffffffffffffffff1690505f80549050816bffffffffffffffffffffffff161061149d576040517fedfaa69800000000000000000000000000000000000000000000000000000000815260040160405180910390fd5b6114a681611ab1565b5050565b60015f9054906101000a90046bffffffffffffffffffffffff1681565b6001600c9054906101000a900473ffffffffffffffffffffffffffffffffffffffff1673ffffffffffffffffffffffffffffffffffffffff163373ffffffffffffffffffffffffffffffffffffffff161461154e576040517fab9501e200000000000000000000000000000000000000000000000000000000815260040160405180910390fd5b81819050848490501461158d576040517f587543d100000000000000000000000000000000000000000000000000000000815260040160405180910390fd5b5f8484905090505f4390505f80805490501115611627575f5b5f80549050811015611625575f81815481106115c5576115c461379c565b5b905f5260205f209060030201600101600c9054906101000a90046bffffffffffffffffffffffff166bffffffffffffffffffffffff16826bffffffffffffffffffffffff16111561161a5761161981612dde565b5b8060010190506115a6565b505b5f5b828110156118b1575f8060018160018154018082558091505003905f5260205f20906003020190508787838181106116645761166361379c565b5b9050602002016020810190611679919061323c565b815f015f6101000a8154816bffffffffffffffffffffffff02191690836bffffffffffffffffffffffff1602179055506002808111156116bc576116bb61396c565b5b81600201600c6101000a81548160ff021916908360ff16021790555082815f01600c6101000a8154816bffffffffffffffffffffffff02191690836bffffffffffffffffffffffff16021790555060015f9054906101000a90046bffffffffffffffffffffffff168361172f9190613999565b816001015f6101000a8154816bffffffffffffffffffffffff02191690836bffffffffffffffffffffffff1602179055508585838181106117735761177261379c565b5b9050602002016020810190611788919061323c565b836117939190613999565b81600101600c6101000a8154816bffffffffffffffffffffffff02191690836bffffffffffffffffffffffff1602179055505f81600201600d6101000a81548160ff0219169083151502179055505f816002015f6101000a8154816bffffffffffffffffffffffff02191690836bffffffffffffffffffffffff16021790555060015f8054905061182491906139d8565b60045f8a8a8681811061183a5761183961379c565b5b905060200201602081019061184f919061323c565b6bffffffffffffffffffffffff166bffffffffffffffffffffffff1681526020019081526020015f205f6101000a8154816bffffffffffffffffffffffff02191690836bffffffffffffffffffffffff16021790555081600101915050611629565b50505050505050565b6001600c9054906101000a900473ffffffffffffffffffffffffffffffffffffffff1681565b600260019054906101000a900473ffffffffffffffffffffffffffffffffffffffff1673ffffffffffffffffffffffffffffffffffffffff163373ffffffffffffffffffffffffffffffffffffffff1614611967576040517f06d919f200000000000000000000000000000000000000000000000000000000815260040160405180910390fd5b5f73ffffffffffffffffffffffffffffffffffffffff168173ffffffffffffffffffffffffffffffffffffffff16036119cc576040517f8579befe00000000000000000000000000000000000000000000000000000000815260040160405180910390fd5b8073ffffffffffffffffffffffffffffffffffffffff16600260019054906101000a900473ffffffffffffffffffffffffffffffffffffffff1673ffffffffffffffffffffffffffffffffffffffff167f7e644d79422f17c01e4894b5f4f588d331ebfa28653d42ae832dc59e38c9798f60405160405180910390a380600260016101000a81548173ffffffffffffffffffffffffffffffffffffffff021916908373ffffffffffffffffffffffffffffffffffffffff16021790555050565b60035f9054906101000a900473ffffffffffffffffffffffffffffffffffffffff1681565b6001600c9054906101000a900473ffffffffffffffffffffffffffffffffffffffff1673ffffffffffffffffffffffffffffffffffffffff163373ffffffffffffffffffffffffffffffffffffffff1614611b38576040517fab9501e200000000000000000000000000000000000000000000000000000000815260040160405180910390fd5b5f808054905003611b75576040517fc9728d0300000000000000000000000000000000000000000000000000000000815260040160405180910390fd5b5f80549050816bffffffffffffffffffffffff1610611bc0576040517fedfaa69800000000000000000000000000000000000000000000000000000000815260040160405180910390fd5b5f80826bffffffffffffffffffffffff1681548110611be257611be161379c565b5b905f5260205f209060030201905080600101600c9054906101000a90046bffffffffffffffffffffffff166bffffffffffffffffffffffff16436bffffffffffffffffffffffff1611611c61576040517f7362802800000000000000000000000000000000000000000000000000000000815260040160405180910390fd5b5f815f015f9054906101000a90046bffffffffffffffffffffffff1690505f836bffffffffffffffffffffffff1681548110611ca057611c9f61379c565b5b905f5260205f2090600302015f8082015f6101000a8154906bffffffffffffffffffffffff02191690555f8201600c6101000a8154906bffffffffffffffffffffffff0219169055600182015f6101000a8154906bffffffffffffffffffffffff021916905560018201600c6101000a8154906bffffffffffffffffffffffff0219169055600282015f6101000a8154906bffffffffffffffffffffffff021916905560028201600c6101000a81549060ff021916905560028201600d6101000a81549060ff0219169055505060045f826bffffffffffffffffffffffff166bffffffffffffffffffffffff1681526020019081526020015f205f6101000a8154906bffffffffffffffffffffffff0219169055806bffffffffffffffffffffffff167f076eadc65217b9887b6e54dbbd172c29692eaf427e5f580771adf39ea4d4fcb160405160405180910390a2505050565b600260019054906101000a900473ffffffffffffffffffffffffffffffffffffffff1673ffffffffffffffffffffffffffffffffffffffff163373ffffffffffffffffffffffffffffffffffffffff1614611e7b576040517f06d919f200000000000000000000000000000000000000000000000000000000815260040160405180910390fd5b5f73ffffffffffffffffffffffffffffffffffffffff168173ffffffffffffffffffffffffffffffffffffffff1603611ee0576040517f8579befe00000000000000000000000000000000000000000000000000000000815260040160405180910390fd5b8073ffffffffffffffffffffffffffffffffffffffff166001600c9054906101000a900473ffffffffffffffffffffffffffffffffffffffff1673ffffffffffffffffffffffffffffffffffffffff167f0eb8852de2c80499ebd4bb59bbe455a85d5ce47bd310236f0e025f5c2cd38b1b60405160405180910390a3806001600c6101000a81548173ffffffffffffffffffffffffffffffffffffffff021916908373ffffffffffffffffffffffffffffffffffffffff16021790555050565b600260019054906101000a900473ffffffffffffffffffffffffffffffffffffffff1673ffffffffffffffffffffffffffffffffffffffff163373ffffffffffffffffffffffffffffffffffffffff1614612027576040517f06d919f200000000000000000000000000000000000000000000000000000000815260040160405180910390fd5b5f816bffffffffffffffffffffffff160361206e576040517fb70c519400000000000000000000000000000000000000000000000000000000815260040160405180910390fd5b806bffffffffffffffffffffffff1660015f9054906101000a90046bffffffffffffffffffffffff166bffffffffffffffffffffffff167f7811dd79f170d85c07b4b2aa250376f73bf5c984d0af59d062379ac3275ee59460405160405180910390a38060015f6101000a8154816bffffffffffffffffffffffff02191690836bffffffffffffffffffffffff16021790555050565b5f73ffffffffffffffffffffffffffffffffffffffff168173ffffffffffffffffffffffffffffffffffffffff1603612169576040517f8579befe00000000000000000000000000000000000000000000000000000000815260040160405180910390fd5b5f8383905090505f5b81811015612643575f60055f8787858181106121915761219061379c565b5b90506020020160208101906121a6919061323c565b6bffffffffffffffffffffffff166bffffffffffffffffffffffff1681526020019081526020015f205f8573ffffffffffffffffffffffffffffffffffffffff1673ffffffffffffffffffffffffffffffffffffffff1681526020019081526020015f205f0160019054906101000a90046bffffffffffffffffffffffff166bffffffffffffffffffffffff160361226a576040517f08a310e800000000000000000000000000000000000000000000000000000000815260040160405180910390fd5b5f60045f8787858181106122815761228061379c565b5b9050602002016020810190612296919061323c565b6bffffffffffffffffffffffff166bffffffffffffffffffffffff1681526020019081526020015f205f9054906101000a90046bffffffffffffffffffffffff1690505f80549050816bffffffffffffffffffffffff1610612324576040517fedfaa69800000000000000000000000000000000000000000000000000000000815260040160405180910390fd5b5f80826bffffffffffffffffffffffff16815481106123465761234561379c565b5b905f5260205f20906003020190505f60055f89898781811061236b5761236a61379c565b5b9050602002016020810190612380919061323c565b6bffffffffffffffffffffffff166bffffffffffffffffffffffff1681526020019081526020015f205f8773ffffffffffffffffffffffffffffffffffffffff1673ffffffffffffffffffffffffffffffffffffffff1681526020019081526020015f209050805f015f9054906101000a900460ff1615801561240857506124078661264a565b5b156124a057805f0160019054906101000a90046bffffffffffffffffffffffff16826002015f8282829054906101000a90046bffffffffffffffffffffffff166124529190613999565b92506101000a8154816bffffffffffffffffffffffff02191690836bffffffffffffffffffffffff1602179055506001815f015f6101000a81548160ff021916908315150217905550612635565b805f015f9054906101000a900460ff1680156124c257506124c08661264a565b155b1561255957805f0160019054906101000a90046bffffffffffffffffffffffff16826002015f8282829054906101000a90046bffffffffffffffffffffffff1661250c9190613a0b565b92506101000a8154816bffffffffffffffffffffffff02191690836bffffffffffffffffffffffff1602179055505f815f015f6101000a81548160ff021916908315150217905550612634565b805f015f9054906101000a900460ff1680156125a057508573ffffffffffffffffffffffffffffffffffffffff163373ffffffffffffffffffffffffffffffffffffffff16145b1561263357805f0160019054906101000a90046bffffffffffffffffffffffff16826002015f8282829054906101000a90046bffffffffffffffffffffffff166125ea9190613a0b565b92506101000a8154816bffffffffffffffffffffffff02191690836bffffffffffffffffffffffff1602179055505f815f015f6101000a81548160ff0219169083151502179055505b5b5b836001019350505050612172565b5050505050565b5f8073ffffffffffffffffffffffffffffffffffffffff1660035f9054906101000a900473ffffffffffffffffffffffffffffffffffffffff1673ffffffffffffffffffffffffffffffffffffffff16036126d1576040517fdc0feac400000000000000000000000000000000000000000000000000000000815260040160405180910390fd5b5f73ffffffffffffffffffffffffffffffffffffffff168273ffffffffffffffffffffffffffffffffffffffff1603612736576040517f8579befe00000000000000000000000000000000000000000000000000000000815260040160405180910390fd5b6001600c9054906101000a900473ffffffffffffffffffffffffffffffffffffffff1673ffffffffffffffffffffffffffffffffffffffff1660035f9054906101000a900473ffffffffffffffffffffffffffffffffffffffff1673ffffffffffffffffffffffffffffffffffffffff1663fc0c546a6040518163ffffffff1660e01b8152600401602060405180830381865afa1580156127d9573d5f803e3d5ffd5b505050506040513d601f19601f820116820180604052508101906127fd9190613859565b73ffffffffffffffffffffffffffffffffffffffff1663587cde1e846040518263ffffffff1660e01b8152600401612835919061359b565b602060405180830381865afa158015612850573d5f803e3d5ffd5b505050506040513d601f19601f820116820180604052508101906128749190613a5e565b73ffffffffffffffffffffffffffffffffffffffff16149050919050565b5f8073ffffffffffffffffffffffffffffffffffffffff1660035f9054906101000a900473ffffffffffffffffffffffffffffffffffffffff1673ffffffffffffffffffffffffffffffffffffffff1603612919576040517fdc0feac400000000000000000000000000000000000000000000000000000000815260040160405180910390fd5b5f73ffffffffffffffffffffffffffffffffffffffff168273ffffffffffffffffffffffffffffffffffffffff160361297e576040517f8579befe00000000000000000000000000000000000000000000000000000000815260040160405180910390fd5b5f60035f9054906101000a900473ffffffffffffffffffffffffffffffffffffffff1673ffffffffffffffffffffffffffffffffffffffff1663fc0c546a6040518163ffffffff1660e01b8152600401602060405180830381865afa1580156129e9573d5f803e3d5ffd5b505050506040513d601f19601f82011682018060405250810190612a0d9190613859565b90505f8173ffffffffffffffffffffffffffffffffffffffff16639ab24eb0856040518263ffffffff1660e01b8152600401612a49919061359b565b602060405180830381865afa158015612a64573d5f803e3d5ffd5b505050506040513d601f19601f82011682018060405250810190612a8891906138b7565b1180612b0a57505f8173ffffffffffffffffffffffffffffffffffffffff166370a08231856040518263ffffffff1660e01b8152600401612ac9919061359b565b602060405180830381865afa158015612ae4573d5f803e3d5ffd5b505050506040513d601f19601f82011682018060405250810190612b0891906138b7565b115b915050919050565b6001600c9054906101000a900473ffffffffffffffffffffffffffffffffffffffff1673ffffffffffffffffffffffffffffffffffffffff163373ffffffffffffffffffffffffffffffffffffffff1614612b99576040517fab9501e200000000000000000000000000000000000000000000000000000000815260040160405180910390fd5b5f808054905003612bd6576040517f87ac8c1400000000000000000000000000000000000000000000000000000000815260040160405180910390fd5b818190508484905014612c15576040517f587543d100000000000000000000000000000000000000000000000000000000815260040160405180910390fd5b5f4390505f8585905090505f5b81811015612dd5575f60045f898985818110612c4157612c4061379c565b5b9050602002016020810190612c56919061323c565b6bffffffffffffffffffffffff166bffffffffffffffffffffffff1681526020019081526020015f205f9054906101000a90046bffffffffffffffffffffffff1690505f80549050816bffffffffffffffffffffffff1610612ce4576040517fedfaa69800000000000000000000000000000000000000000000000000000000815260040160405180910390fd5b5f80826bffffffffffffffffffffffff1681548110612d0657612d0561379c565b5b905f5260205f2090600302019050806001015f9054906101000a90046bffffffffffffffffffffffff166bffffffffffffffffffffffff16856bffffffffffffffffffffffff1610612d84576040517f9a8a9d5500000000000000000000000000000000000000000000000000000000815260040160405180910390fd5b868684818110612d9757612d9661379c565b5b9050602002016020810190612dac9190613ab3565b81600201600c6101000a81548160ff021916908360ff1602179055508260010192505050612c22565b50505050505050565b6001600c9054906101000a900473ffffffffffffffffffffffffffffffffffffffff1673ffffffffffffffffffffffffffffffffffffffff163373ffffffffffffffffffffffffffffffffffffffff1614612e65576040517fab9501e200000000000000000000000000000000000000000000000000000000815260040160405180910390fd5b5f80549050816bffffffffffffffffffffffff1610612eb0576040517fedfaa69800000000000000000000000000000000000000000000000000000000815260040160405180910390fd5b612eb981611ab1565b50565b6004602052805f5260405f205f915054906101000a90046bffffffffffffffffffffffff1681565b600260019054906101000a900473ffffffffffffffffffffffffffffffffffffffff1673ffffffffffffffffffffffffffffffffffffffff163373ffffffffffffffffffffffffffffffffffffffff1614612f6b576040517f06d919f200000000000000000000000000000000000000000000000000000000815260040160405180910390fd5b5f73ffffffffffffffffffffffffffffffffffffffff168173ffffffffffffffffffffffffffffffffffffffff1603612fd0576040517f8579befe00000000000000000000000000000000000000000000000000000000815260040160405180910390fd5b8073ffffffffffffffffffffffffffffffffffffffff1660035f9054906101000a900473ffffffffffffffffffffffffffffffffffffffff1673ffffffffffffffffffffffffffffffffffffffff167f6917fdc3c398926bf1b605ba131d9b099995c600bdee588cee456cc89dc8edba60405160405180910390a38060035f6101000a81548173ffffffffffffffffffffffffffffffffffffffff021916908373ffffffffffffffffffffffffffffffffffffffff16021790555050565b60025f9054906101000a900460ff1681565b600260019054906101000a900473ffffffffffffffffffffffffffffffffffffffff1681565b6040518060e001604052805f6bffffffffffffffffffffffff1681526020015f6bffffffffffffffffffffffff1681526020015f6bffffffffffffffffffffffff1681526020015f6bffffffffffffffffffffffff1681526020015f6bffffffffffffffffffffffff1681526020015f60ff1681526020015f151581525090565b5f80fd5b5f80fd5b5f80fd5b5f80fd5b5f80fd5b5f8083601f8401126131705761316f61314f565b5b8235905067ffffffffffffffff81111561318d5761318c613153565b5b6020830191508360208202830111156131a9576131a8613157565b5b9250929050565b5f80602083850312156131c6576131c5613147565b5b5f83013567ffffffffffffffff8111156131e3576131e261314b565b5b6131ef8582860161315b565b92509250509250929050565b5f6bffffffffffffffffffffffff82169050919050565b61321b816131fb565b8114613225575f80fd5b50565b5f8135905061323681613212565b92915050565b5f6020828403121561325157613250613147565b5b5f61325e84828501613228565b91505092915050565b613270816131fb565b82525050565b5f60ff82169050919050565b61328b81613276565b82525050565b5f8115159050919050565b6132a581613291565b82525050565b60e082015f8201516132bf5f850182613267565b5060208201516132d26020850182613267565b5060408201516132e56040850182613267565b5060608201516132f86060850182613267565b50608082015161330b6080850182613267565b5060a082015161331e60a0850182613282565b5060c082015161333160c085018261329c565b50505050565b5f60e08201905061334a5f8301846132ab565b92915050565b5f81519050919050565b5f82825260208201905092915050565b5f819050602082019050919050565b5f613384838361329c565b60208301905092915050565b5f602082019050919050565b5f6133a682613350565b6133b0818561335a565b93506133bb8361336a565b805f5b838110156133eb5781516133d28882613379565b97506133dd83613390565b9250506001810190506133be565b5085935050505092915050565b5f6020820190508181035f830152613410818461339c565b905092915050565b5f73ffffffffffffffffffffffffffffffffffffffff82169050919050565b5f61344182613418565b9050919050565b61345181613437565b811461345b575f80fd5b50565b5f8135905061346c81613448565b92915050565b5f806040838503121561348857613487613147565b5b5f61349585828601613228565b92505060206134a68582860161345e565b9150509250929050565b6134b981613291565b82525050565b6134c8816131fb565b82525050565b5f6040820190506134e15f8301856134b0565b6134ee60208301846134bf565b9392505050565b5f6020820190506135085f8301846134bf565b92915050565b5f805f806040858703121561352657613525613147565b5b5f85013567ffffffffffffffff8111156135435761354261314b565b5b61354f8782880161315b565b9450945050602085013567ffffffffffffffff8111156135725761357161314b565b5b61357e8782880161315b565b925092505092959194509250565b61359581613437565b82525050565b5f6020820190506135ae5f83018461358c565b92915050565b5f602082840312156135c9576135c8613147565b5b5f6135d68482850161345e565b91505092915050565b5f819050919050565b5f6136026135fd6135f884613418565b6135df565b613418565b9050919050565b5f613613826135e8565b9050919050565b5f61362482613609565b9050919050565b6136348161361a565b82525050565b5f60208201905061364d5f83018461362b565b92915050565b5f805f6040848603121561366a57613669613147565b5b5f84013567ffffffffffffffff8111156136875761368661314b565b5b6136938682870161315b565b935093505060206136a68682870161345e565b9150509250925092565b5f6020820190506136c35f8301846134b0565b92915050565b5f8083601f8401126136de576136dd61314f565b5b8235905067ffffffffffffffff8111156136fb576136fa613153565b5b60208301915083602082028301111561371757613716613157565b5b9250929050565b5f805f806040858703121561373657613735613147565b5b5f85013567ffffffffffffffff8111156137535761375261314b565b5b61375f8782880161315b565b9450945050602085013567ffffffffffffffff8111156137825761378161314b565b5b61378e878288016136c9565b925092505092959194509250565b7f4e487b71000000000000000000000000000000000000000000000000000000005f52603260045260245ffd5b6137d281613276565b82525050565b5f6020820190506137eb5f8301846137c9565b92915050565b7f4e487b71000000000000000000000000000000000000000000000000000000005f52604160045260245ffd5b5f61382882613437565b9050919050565b6138388161381e565b8114613842575f80fd5b50565b5f815190506138538161382f565b92915050565b5f6020828403121561386e5761386d613147565b5b5f61387b84828501613845565b91505092915050565b5f819050919050565b61389681613884565b81146138a0575f80fd5b50565b5f815190506138b18161388d565b92915050565b5f602082840312156138cc576138cb613147565b5b5f6138d9848285016138a3565b91505092915050565b7f4e487b71000000000000000000000000000000000000000000000000000000005f52601260045260245ffd5b7f4e487b71000000000000000000000000000000000000000000000000000000005f52601160045260245ffd5b5f613946826131fb565b9150613951836131fb565b925082613961576139606138e2565b5b828204905092915050565b7f4e487b71000000000000000000000000000000000000000000000000000000005f52602160045260245ffd5b5f6139a3826131fb565b91506139ae836131fb565b925082820190506bffffffffffffffffffffffff8111156139d2576139d161390f565b5b92915050565b5f6139e282613884565b91506139ed83613884565b9250828203905081811115613a0557613a0461390f565b5b92915050565b5f613a15826131fb565b9150613a20836131fb565b925082820390506bffffffffffffffffffffffff811115613a4457613a4361390f565b5b92915050565b5f81519050613a5881613448565b92915050565b5f60208284031215613a7357613a72613147565b5b5f613a8084828501613a4a565b91505092915050565b613a9281613276565b8114613a9c575f80fd5b50565b5f81359050613aad81613a89565b92915050565b5f60208284031215613ac857613ac7613147565b5b5f613ad584828501613a9f565b9150509291505056fea26469706673582212208c8d6177e68c6b3f298fabcaec4639381587a15537fc718dd911a1505f0e1bfb64736f6c63430008180033","linkReferences":{}},"methodIdentifiers":{"_clearProposal(uint96)":"782bddbe","admin()":"f851a440","announceResults(uint96[])":"181abbc2","answer(uint96[],uint8[])":"b75be3dd","canVote(uint96[])":"370daca5","clearProposalByIndex(uint96)":"bd3c0e04","clearProposalByTallyId(uint96)":"43b3290b","disabled()":"ee070805","discoverProposals(uint96[],uint96[])":"60ec1cf1","getProposal(uint96)":"197c5f43","hasVotingPower(address)":"a9b4563c","isMember(address)":"a230c524","proposalDisablerList(uint96,address)":"3ceb5528","proposalList(uint96)":"c4daf36c","setAdmin(address)":"704b6c02","setDisablePower(uint96[])":"37e28c5a","setTallyGovernor(address)":"dec45df2","setToad(address)":"895ccf53","setValidBlockInterval(uint96)":"91dd273d","tallyGovernor()":"75092114","toad()":"6a832c3c","toggle(uint96[],address)":"a14a4a51","validBlockInterval()":"529bb746"},"id":62}