{"abi":[{"type":"constructor","inputs":[{"name":"_toad","type":"address","internalType":"address"}],"stateMutability":"nonpayable"},{"type":"function","name":"_clearProposal","inputs":[{"name":"_index","type":"uint256","internalType":"uint256"}],"outputs":[],"stateMutability":"nonpayable"},{"type":"function","name":"admin","inputs":[],"outputs":[{"name":"","type":"address","internalType":"address"}],"stateMutability":"view"},{"type":"function","name":"announceResults","inputs":[{"name":"_tallyIds","type":"uint256[]","internalType":"uint256[]"}],"outputs":[],"stateMutability":"nonpayable"},{"type":"function","name":"answer","inputs":[{"name":"_tallyIds","type":"uint256[]","internalType":"uint256[]"},{"name":"_answers","type":"uint8[]","internalType":"enum Answer[]"}],"outputs":[],"stateMutability":"nonpayable"},{"type":"function","name":"canVote","inputs":[{"name":"_tallyIds","type":"uint256[]","internalType":"uint256[]"}],"outputs":[{"name":"results","type":"bool[]","internalType":"bool[]"}],"stateMutability":"view"},{"type":"function","name":"clearProposalByIndex","inputs":[{"name":"_index","type":"uint256","internalType":"uint256"}],"outputs":[],"stateMutability":"nonpayable"},{"type":"function","name":"clearProposalByTallyId","inputs":[{"name":"_tallyId","type":"uint256","internalType":"uint256"}],"outputs":[],"stateMutability":"nonpayable"},{"type":"function","name":"disabled","inputs":[],"outputs":[{"name":"","type":"bool","internalType":"bool"}],"stateMutability":"view"},{"type":"function","name":"discoverProposals","inputs":[{"name":"_tallyIds","type":"uint256[]","internalType":"uint256[]"},{"name":"_votingPeriods","type":"uint256[]","internalType":"uint256[]"}],"outputs":[],"stateMutability":"nonpayable"},{"type":"function","name":"getProposal","inputs":[{"name":"_tallyId","type":"uint256","internalType":"uint256"}],"outputs":[{"name":"","type":"tuple","internalType":"struct ProposalView","components":[{"name":"tallyId","type":"uint256","internalType":"uint256"},{"name":"answer","type":"uint8","internalType":"enum Answer"},{"name":"discoveredAt","type":"uint256","internalType":"uint256"},{"name":"validBlock","type":"uint256","internalType":"uint256"},{"name":"disablePower","type":"uint256","internalType":"uint256"},{"name":"votingPeriod","type":"uint256","internalType":"uint256"},{"name":"announced","type":"bool","internalType":"bool"}]}],"stateMutability":"view"},{"type":"function","name":"hasVotingPower","inputs":[{"name":"_address","type":"address","internalType":"address"}],"outputs":[{"name":"","type":"bool","internalType":"bool"}],"stateMutability":"view"},{"type":"function","name":"isMember","inputs":[{"name":"_address","type":"address","internalType":"address"}],"outputs":[{"name":"","type":"bool","internalType":"bool"}],"stateMutability":"view"},{"type":"function","name":"proposalDisablerList","inputs":[{"name":"","type":"uint256","internalType":"uint256"},{"name":"","type":"address","internalType":"address"}],"outputs":[{"name":"confirmed","type":"bool","internalType":"bool"},{"name":"votingPower","type":"uint256","internalType":"uint256"}],"stateMutability":"view"},{"type":"function","name":"proposalList","inputs":[{"name":"","type":"uint256","internalType":"uint256"}],"outputs":[{"name":"","type":"uint256","internalType":"uint256"}],"stateMutability":"view"},{"type":"function","name":"setAdmin","inputs":[{"name":"_admin","type":"address","internalType":"address"}],"outputs":[],"stateMutability":"nonpayable"},{"type":"function","name":"setDisablePower","inputs":[{"name":"_tallyIds","type":"uint256[]","internalType":"uint256[]"}],"outputs":[],"stateMutability":"nonpayable"},{"type":"function","name":"setTallyGovernor","inputs":[{"name":"_tallyGovernor","type":"address","internalType":"address"}],"outputs":[],"stateMutability":"nonpayable"},{"type":"function","name":"setToad","inputs":[{"name":"_toad","type":"address","internalType":"address"}],"outputs":[],"stateMutability":"nonpayable"},{"type":"function","name":"setValidBlockInterval","inputs":[{"name":"_validBlockInterval","type":"uint256","internalType":"uint256"}],"outputs":[],"stateMutability":"nonpayable"},{"type":"function","name":"tallyGovernor","inputs":[],"outputs":[{"name":"","type":"address","internalType":"contract GovernorVotes"}],"stateMutability":"view"},{"type":"function","name":"toad","inputs":[],"outputs":[{"name":"","type":"address","internalType":"address"}],"stateMutability":"view"},{"type":"function","name":"toggle","inputs":[{"name":"_tallyIds","type":"uint256[]","internalType":"uint256[]"},{"name":"_member","type":"address","internalType":"address"}],"outputs":[],"stateMutability":"nonpayable"},{"type":"function","name":"validBlockInterval","inputs":[],"outputs":[{"name":"","type":"uint256","internalType":"uint256"}],"stateMutability":"view"},{"type":"function","name":"vote","inputs":[{"name":"_tallyIds","type":"uint256[]","internalType":"uint256[]"}],"outputs":[],"stateMutability":"nonpayable"},{"type":"event","name":"AdminChanged","inputs":[{"name":"oldAdmin","type":"address","indexed":false,"internalType":"address"},{"name":"newAdmin","type":"address","indexed":false,"internalType":"address"}],"anonymous":false},{"type":"event","name":"DisablerAdded","inputs":[{"name":"tallyId","type":"uint256","indexed":false,"internalType":"uint256"},{"name":"disabler","type":"address","indexed":false,"internalType":"address"},{"name":"votingPower","type":"uint256","indexed":false,"internalType":"uint256"}],"anonymous":false},{"type":"event","name":"ProposalCleared","inputs":[{"name":"tallyId","type":"uint256","indexed":false,"internalType":"uint256"}],"anonymous":false},{"type":"event","name":"ResultsAnnounced","inputs":[{"name":"tallyId","type":"uint256","indexed":false,"internalType":"uint256"},{"name":"answer","type":"uint8","indexed":false,"internalType":"enum Answer"}],"anonymous":false},{"type":"event","name":"TallyGovernorChanged","inputs":[{"name":"oldTallyGovernor","type":"address","indexed":false,"internalType":"address"},{"name":"newTallyGovernor","type":"address","indexed":false,"internalType":"address"}],"anonymous":false},{"type":"event","name":"ToadChanged","inputs":[{"name":"oldToad","type":"address","indexed":false,"internalType":"address"},{"name":"newToad","type":"address","indexed":false,"internalType":"address"}],"anonymous":false},{"type":"event","name":"ValidBlockIntervalChanged","inputs":[{"name":"oldValidBlockInterval","type":"uint256","indexed":false,"internalType":"uint256"},{"name":"newValidBlockInterval","type":"uint256","indexed":false,"internalType":"uint256"}],"anonymous":false},{"type":"error","name":"ArrayLengthsMustMatch","inputs":[]},{"type":"error","name":"CallerAlreadyDisablingProposal","inputs":[]},{"type":"error","name":"CallerHasNoVotingPower","inputs":[]},{"type":"error","name":"CallerNotAdmin","inputs":[]},{"type":"error","name":"CallerNotToad","inputs":[]},{"type":"error","name":"EmptyArrayNotAllowed","inputs":[]},{"type":"error","name":"MemberHasNoVotingPower","inputs":[]},{"type":"error","name":"NoProposalsToAnswer","inputs":[]},{"type":"error","name":"NoProposalsToClear","inputs":[]},{"type":"error","name":"ProposalIndexOutOfBounds","inputs":[]},{"type":"error","name":"ProposalNotActiveForAnswering","inputs":[]},{"type":"error","name":"ProposalNotActiveForDisabling","inputs":[]},{"type":"error","name":"ProposalStillActive","inputs":[]},{"type":"error","name":"ResultsAlreadyAnnounced","inputs":[]},{"type":"error","name":"TallyGovernorNotSet","inputs":[]},{"type":"error","name":"ValidBlockIntervalMustBeGreaterThanZero","inputs":[]},{"type":"error","name":"ZeroAddressNotAllowed","inputs":[]}],"bytecode":{"object":"0x608060405234801562000010575f80fd5b50604051620023f3380380620023f3833981016040819052620000339162000096565b6001600160a01b0381166200005b576040516342bcdf7f60e11b815260040160405180910390fd5b60038054336001600160a01b031991821617909155600280549091166001600160a01b039290921691909117905562015180600155620000c5565b5f60208284031215620000a7575f80fd5b81516001600160a01b0381168114620000be575f80fd5b9392505050565b61232080620000d35f395ff3fe608060405234801561000f575f80fd5b5060043610610153575f3560e01c8063a230c524116100bf578063dec45df211610079578063dec45df214610345578063e719427814610358578063ee0708051461036b578063f758a86d1461037f578063f851a44014610392578063ff0fc0c9146103a5575f80fd5b8063a230c5241461026f578063a9b4563c14610292578063ae7c8116146102a5578063c6311e3f146102f3578063c7f758a814610312578063ce11f2bb14610332575f80fd5b80636a832c3c116101105780636a832c3c146101e5578063704b6c02146102105780637509211414610223578063895ccf5314610236578063984e18f1146102495780639eb7a5f21461025c575f80fd5b80631525048f146101575780632e9a26141461016c578063306750bd1461017f5780633432c44f146101925780633ceeb85d146101bb578063529bb746146101ce575b5f80fd5b61016a610165366004611e7b565b6103b8565b005b61016a61017a366004611e7b565b610410565b61016a61018d366004611f66565b610568565b6101a56101a0366004611fc6565b610717565b6040516101b29190612000565b60405180910390f35b61016a6101c9366004611e7b565b610985565b6101d760015481565b6040519081526020016101b2565b6002546101f8906001600160a01b031681565b6040516001600160a01b0390911681526020016101b2565b61016a61021e366004612059565b610a11565b6004546101f8906001600160a01b031681565b61016a610244366004612059565b610acc565b61016a610257366004612074565b610b87565b61016a61026a366004611fc6565b610cc1565b61028261027d366004612059565b610dd5565b60405190151581526020016101b2565b6102826102a0366004612059565b610f11565b6102dc6102b3366004612135565b600660209081525f92835260408084209091529082529020805460019091015460ff9091169082565b6040805192151583526020830191909152016101b2565b6101d7610301366004611e7b565b60056020525f908152604090205481565b610325610320366004611e7b565b6110c0565b6040516101b29190612197565b61016a610340366004611fc6565b6111ab565b61016a610353366004612059565b6114a4565b61016a610366366004611fc6565b61155f565b60025461028290600160a01b900460ff1681565b61016a61038d3660046121ed565b6119d6565b6003546101f8906001600160a01b031681565b61016a6103b3366004611e7b565b611e18565b6002546001600160a01b031633146103e3576040516355ca80f160e11b815260040160405180910390fd5b5f54811061040457604051631dbf54d360e31b815260040160405180910390fd5b61040d81610410565b50565b6002546001600160a01b0316331461043b576040516355ca80f160e11b815260040160405180910390fd5b5f8054900361045d5760405163c9728d0360e01b815260040160405180910390fd5b5f54811061047e57604051631dbf54d360e31b815260040160405180910390fd5b5f80828154811061049157610491612231565b905f5260205f2090600702019050806005015443116104c357604051630e6c500560e31b815260040160405180910390fd5b80545f8054849081106104d8576104d8612231565b5f918252602080832060079290920290910182815560018101805460ff199081169091556002820184905560038201849055600482018490556005808301859055600690920180549091169055838352815260408083209290925590518281527f36a3a1d8b511920ea8ee33b418cd9d16939971201eb71b178a38e3f93c52f938910160405180910390a1505050565b6002546001600160a01b03163314610593576040516355ca80f160e11b815260040160405180910390fd5b80518251146105b55760405163587543d160e01b815260040160405180910390fd5b5f5415610603575f5b5f54811015610601575f81815481106105d9576105d9612231565b905f5260205f209060070201600501544311156105f9576105f9816103b8565b6001016105be565b505b5f5b8251811015610712575f8054600181018255908052835160079091027f290decd9548b62a8d60345a988386fc84ba6bc95484008f6362f93160ef3e563019084908390811061065657610656612231565b602090810291909101015181556001808201805460ff1916600290811790915543908301819055905461068891612259565b600382015582518390839081106106a1576106a1612231565b6020026020010151436106b49190612259565b600582015560068101805460ff191690555f60048201819055546106da90600190612272565b60055f8685815181106106ef576106ef612231565b60209081029190910181015182528101919091526040015f205550600101610605565b505050565b606081515f0361073a57604051630a132f2160e11b815260040160405180910390fd5b815167ffffffffffffffff81111561075457610754611e92565b60405190808252806020026020018201604052801561077d578160200160208202803683370190505b5090505f5b825181101561097f575f60055f8584815181106107a1576107a1612231565b602002602001015181526020019081526020015f205490505f8054905081106107dd57604051631dbf54d360e31b815260040160405180910390fd5b5f81815481106107ef576107ef612231565b905f5260205f20906007020160030154431161082e575f83838151811061081857610818612231565b9115156020928302919091019091015250610977565b5f60045f9054906101000a90046001600160a01b03166001600160a01b031663fc0c546a6040518163ffffffff1660e01b8152600401602060405180830381865afa15801561087f573d5f803e3d5ffd5b505050506040513d601f19601f820116820180604052508101906108a39190612285565b6002546040516309ab24eb60e41b81526001600160a01b039182166004820152911690639ab24eb090602401602060405180830381865afa1580156108ea573d5f803e3d5ffd5b505050506040513d601f19601f8201168201806040525081019061090e91906122a0565b90505f80838154811061092357610923612231565b905f5260205f20906007020160040154905060028261094291906122b7565b811161094f576001610951565b5f5b85858151811061096357610963612231565b911515602092830291909101909101525050505b600101610782565b50919050565b6003546001600160a01b031633146109b05760405163036c8cf960e11b815260040160405180910390fd5b805f036109d057604051632dc3146560e21b815260040160405180910390fd5b60015460408051918252602082018390527fd1a78b8a588d3c50255f3f4651cba1fbf36eee5bc0ef65a97063255db054dafb910160405180910390a1600155565b6003546001600160a01b03163314610a3c5760405163036c8cf960e11b815260040160405180910390fd5b6001600160a01b038116610a63576040516342bcdf7f60e11b815260040160405180910390fd5b600354604080516001600160a01b03928316815291831660208301527f7e644d79422f17c01e4894b5f4f588d331ebfa28653d42ae832dc59e38c9798f910160405180910390a1600380546001600160a01b0319166001600160a01b0392909216919091179055565b6003546001600160a01b03163314610af75760405163036c8cf960e11b815260040160405180910390fd5b6001600160a01b038116610b1e576040516342bcdf7f60e11b815260040160405180910390fd5b600254604080516001600160a01b03928316815291831660208301527f0eb8852de2c80499ebd4bb59bbe455a85d5ce47bd310236f0e025f5c2cd38b1b910160405180910390a1600280546001600160a01b0319166001600160a01b0392909216919091179055565b6002546001600160a01b03163314610bb2576040516355ca80f160e11b815260040160405180910390fd5b5f80549003610bd4576040516321eb230560e21b815260040160405180910390fd5b8051825114610bf65760405163587543d160e01b815260040160405180910390fd5b5f5b8251811015610712575f60055f858481518110610c1757610c17612231565b602002602001015181526020019081526020015f205490505f808281548110610c4257610c42612231565b905f5260205f209060070201905080600301544310610c7457604051639a8a9d5560e01b815260040160405180910390fd5b838381518110610c8657610c86612231565b6020026020010151816001015f6101000a81548160ff02191690836002811115610cb257610cb2612163565b02179055505050600101610bf8565b6002546001600160a01b03163314610cec576040516355ca80f160e11b815260040160405180910390fd5b5f5b8151811015610dd1575f60055f848481518110610d0d57610d0d612231565b602002602001015181526020019081526020015f205490505f808281548110610d3857610d38612231565b5f9182526020909120600790910201600681015490915060ff1615610d705760405163059f169d60e41b815260040160405180910390fd5b805460018201546040517f1543ace2cc7bdf4f64e0bea7f31f4697609dc6d781606cabf5567b6c4325c48c92610dad92909160ff909116906122d6565b60405180910390a1600601805460ff19166001908117909155919091019050610cee565b5050565b6004545f906001600160a01b0316610e0057604051633703fab160e21b815260040160405180910390fd5b6001600160a01b038216610e27576040516342bcdf7f60e11b815260040160405180910390fd5b6002546004805460408051637e062a3560e11b815290516001600160a01b03948516949092169263fc0c546a9282820192602092908290030181865afa158015610e73573d5f803e3d5ffd5b505050506040513d601f19601f82011682018060405250810190610e979190612285565b604051632c3e6f0f60e11b81526001600160a01b038581166004830152919091169063587cde1e90602401602060405180830381865afa158015610edd573d5f803e3d5ffd5b505050506040513d601f19601f82011682018060405250810190610f019190612285565b6001600160a01b03161492915050565b6004545f906001600160a01b0316610f3c57604051633703fab160e21b815260040160405180910390fd5b6001600160a01b038216610f63576040516342bcdf7f60e11b815260040160405180910390fd5b5f60045f9054906101000a90046001600160a01b03166001600160a01b031663fc0c546a6040518163ffffffff1660e01b8152600401602060405180830381865afa158015610fb4573d5f803e3d5ffd5b505050506040513d601f19601f82011682018060405250810190610fd89190612285565b6040516309ab24eb60e41b81526001600160a01b0385811660048301529192505f91831690639ab24eb090602401602060405180830381865afa158015611021573d5f803e3d5ffd5b505050506040513d601f19601f8201168201806040525081019061104591906122a0565b11806110b957506040516370a0823160e01b81526001600160a01b0384811660048301525f91908316906370a0823190602401602060405180830381865afa158015611093573d5f803e3d5ffd5b505050506040513d601f19601f820116820180604052508101906110b791906122a0565b115b9392505050565b6110fd6040805160e081019091525f808252602082019081526020015f81526020015f81526020015f81526020015f81526020015f151581525090565b5f82815260056020526040812054815490919081908390811061112257611122612231565b905f5260205f20906007020190506040518060e00160405280825f01548152602001826001015f9054906101000a900460ff16600281111561116657611166612163565b81526002830154602082015260038301546040820152600483015460608201526005830154608082015260069092015460ff16151560a0909201919091529392505050565b6002546001600160a01b031633146111d6576040516355ca80f160e11b815260040160405180910390fd5b80515f036111f757604051630a132f2160e11b815260040160405180910390fd5b5f61120182610717565b90505f5b825181101561124d5781818151811061122057611220612231565b602002602001015161124557604051639a8a9d5560e01b815260040160405180910390fd5b600101611205565b505f825167ffffffffffffffff81111561126957611269611e92565b604051908082528060200260200182016040528015611292578160200160208202803683370190505b5090505f5b835181101561134b575f60055f8684815181106112b6576112b6612231565b602002602001015181526020019081526020015f205490505f8082815481106112e1576112e1612231565b905f5260205f2090600702019050806001015f9054906101000a900460ff1684848151811061131257611312612231565b6020026020010190600281111561132b5761132b612163565b9081600281111561133e5761133e612163565b9052505050600101611297565b505f5b835181101561149e575f600183838151811061136c5761136c612231565b6020026020010151600281111561138557611385612163565b03611392575060016113ce565b5f8383815181106113a5576113a5612231565b602002602001015160028111156113be576113be612163565b036113ca57505f6113ce565b5060025b60045485516001600160a01b0390911690637b3c71d3908790859081106113f7576113f7612231565b6020026020010151836040518363ffffffff1660e01b815260040161145492919091825260ff16602082015260606040820181905260139082015272544f4144206175746f6d6174656420766f746560681b608082015260a00190565b6020604051808303815f875af1158015611470573d5f803e3d5ffd5b505050506040513d601f19601f8201168201806040525081019061149491906122a0565b505060010161134e565b50505050565b6003546001600160a01b031633146114cf5760405163036c8cf960e11b815260040160405180910390fd5b6001600160a01b0381166114f6576040516342bcdf7f60e11b815260040160405180910390fd5b600454604080516001600160a01b03928316815291831660208301527f6917fdc3c398926bf1b605ba131d9b099995c600bdee588cee456cc89dc8edba910160405180910390a1600480546001600160a01b0319166001600160a01b0392909216919091179055565b3361157d576040516342bcdf7f60e11b815260040160405180910390fd5b61158633610f11565b6115a357604051633b9df69560e01b815260040160405180910390fd5b5f60045f9054906101000a90046001600160a01b03166001600160a01b031663fc0c546a6040518163ffffffff1660e01b8152600401602060405180830381865afa1580156115f4573d5f803e3d5ffd5b505050506040513d601f19601f820116820180604052508101906116189190612285565b6040516309ab24eb60e41b81523360048201526001600160a01b039190911690639ab24eb090602401602060405180830381865afa15801561165c573d5f803e3d5ffd5b505050506040513d601f19601f8201168201806040525081019061168091906122a0565b9050805f0361175d576004805460408051637e062a3560e11b815290516001600160a01b039092169263fc0c546a9282820192602092908290030181865afa1580156116ce573d5f803e3d5ffd5b505050506040513d601f19601f820116820180604052508101906116f29190612285565b6040516370a0823160e01b81523360048201526001600160a01b0391909116906370a0823190602401602060405180830381865afa158015611736573d5f803e3d5ffd5b505050506040513d601f19601f8201168201806040525081019061175a91906122a0565b90505b5f5b8251811015610712575f60055f85848151811061177e5761177e612231565b602002602001015181526020019081526020015f205490505f8054905081106117ba57604051631dbf54d360e31b815260040160405180910390fd5b5f8082815481106117cd576117cd612231565b905f5260205f2090600702016040518060e00160405290815f8201548152602001600182015f9054906101000a900460ff16600281111561181057611810612163565b600281111561182157611821612163565b8152600282015460208201526003820154604082015260048201546060808301919091526005830154608083015260069092015460ff16151560a090910152810151909150431061188557604051631973a3eb60e01b815260040160405180910390fd5b5f60065f87868151811061189b5761189b612231565b602002602001015181526020019081526020015f205f336001600160a01b03166001600160a01b031681526020019081526020015f206001015411156118f457604051633f88ab0560e11b815260040160405180910390fd5b60405180604001604052805f151581526020018581525060065f87868151811061192057611920612231565b60209081029190910181015182528181019290925260409081015f9081203382528352208251815460ff191690151517815591015160019091015584517fd76e2875be0b8cdf68c72d99b67e3625455540bfc433467e84cd613b172cd8949086908590811061199157611991612231565b602002602001015133866040516119c4939291909283526001600160a01b03919091166020830152604082015260600190565b60405180910390a1505060010161175f565b6001600160a01b0381166119fd576040516342bcdf7f60e11b815260040160405180910390fd5b5f5b82518110156107125760065f848381518110611a1d57611a1d612231565b602002602001015181526020019081526020015f205f836001600160a01b03166001600160a01b031681526020019081526020015f20600101545f03611a7657604051630114621d60e31b815260040160405180910390fd5b5f60055f858481518110611a8c57611a8c612231565b602002602001015181526020019081526020015f205490505f805490508110611ac857604051631dbf54d360e31b815260040160405180910390fd5b5f808281548110611adb57611adb612231565b905f5260205f209060070201905060065f868581518110611afe57611afe612231565b60209081029190910181015182528181019290925260409081015f9081206001600160a01b038816825290925290205460ff16158015611b425750611b4284610dd5565b15611c095760065f868581518110611b5c57611b5c612231565b602002602001015181526020019081526020015f205f856001600160a01b03166001600160a01b031681526020019081526020015f2060010154816004015f828254611ba89190612259565b92505081905550600160065f878681518110611bc657611bc6612231565b60209081029190910181015182528181019290925260409081015f9081206001600160a01b03891682529092529020805460ff1916911515919091179055611e0e565b60065f868581518110611c1e57611c1e612231565b60209081029190910181015182528181019290925260409081015f9081206001600160a01b038816825290925290205460ff1615156001148015611c685750611c6684610dd5565b155b15611ceb5760065f868581518110611c8257611c82612231565b602002602001015181526020019081526020015f205f856001600160a01b03166001600160a01b031681526020019081526020015f2060010154816004015f828254611cce9190612272565b925050819055505f60065f878681518110611bc657611bc6612231565b60065f868581518110611d0057611d00612231565b60209081029190910181015182528181019290925260409081015f9081206001600160a01b038816825290925290205460ff1615156001148015611d4c5750336001600160a01b038516145b15611e0e5760065f868581518110611d6657611d66612231565b602002602001015181526020019081526020015f205f856001600160a01b03166001600160a01b031681526020019081526020015f2060010154816004015f828254611db29190612272565b925050819055505f60065f878681518110611dcf57611dcf612231565b60209081029190910181015182528181019290925260409081015f9081206001600160a01b03891682529092529020805460ff19169115159190911790555b50506001016119ff565b6002546001600160a01b03163314611e43576040516355ca80f160e11b815260040160405180910390fd5b5f8181526005602052604081205490548110611e7257604051631dbf54d360e31b815260040160405180910390fd5b610dd181610410565b5f60208284031215611e8b575f80fd5b5035919050565b634e487b7160e01b5f52604160045260245ffd5b604051601f8201601f1916810167ffffffffffffffff81118282101715611ecf57611ecf611e92565b604052919050565b5f67ffffffffffffffff821115611ef057611ef0611e92565b5060051b60200190565b5f82601f830112611f09575f80fd5b81356020611f1e611f1983611ed7565b611ea6565b8083825260208201915060208460051b870101935086841115611f3f575f80fd5b602086015b84811015611f5b5780358352918301918301611f44565b509695505050505050565b5f8060408385031215611f77575f80fd5b823567ffffffffffffffff80821115611f8e575f80fd5b611f9a86838701611efa565b93506020850135915080821115611faf575f80fd5b50611fbc85828601611efa565b9150509250929050565b5f60208284031215611fd6575f80fd5b813567ffffffffffffffff811115611fec575f80fd5b611ff884828501611efa565b949350505050565b602080825282518282018190525f9190848201906040850190845b8181101561203957835115158352928401929184019160010161201b565b50909695505050505050565b6001600160a01b038116811461040d575f80fd5b5f60208284031215612069575f80fd5b81356110b981612045565b5f8060408385031215612085575f80fd5b823567ffffffffffffffff8082111561209c575f80fd5b6120a886838701611efa565b93506020915081850135818111156120be575f80fd5b85019050601f810186136120d0575f80fd5b80356120de611f1982611ed7565b81815260059190911b820183019083810190888311156120fc575f80fd5b928401925b8284101561212657833560038110612117575f80fd5b82529284019290840190612101565b80955050505050509250929050565b5f8060408385031215612146575f80fd5b82359150602083013561215881612045565b809150509250929050565b634e487b7160e01b5f52602160045260245ffd5b6003811061219357634e487b7160e01b5f52602160045260245ffd5b9052565b8151815260208083015160e08301916121b290840182612177565b5060408301516040830152606083015160608301526080830151608083015260a083015160a083015260c0830151151560c083015292915050565b5f80604083850312156121fe575f80fd5b823567ffffffffffffffff811115612214575f80fd5b61222085828601611efa565b925050602083013561215881612045565b634e487b7160e01b5f52603260045260245ffd5b634e487b7160e01b5f52601160045260245ffd5b8082018082111561226c5761226c612245565b92915050565b8181038181111561226c5761226c612245565b5f60208284031215612295575f80fd5b81516110b981612045565b5f602082840312156122b0575f80fd5b5051919050565b5f826122d157634e487b7160e01b5f52601260045260245ffd5b500490565b828152604081016110b9602083018461217756fea26469706673582212208e3ae84b7f2e6cf1bdf7a68b94facfef00e7cf4cbd33cb58f93e2e37d3f71c0764736f6c63430008180033","linkReferences":{}},"methodIdentifiers":{"_clearProposal(uint256)":"2e9a2614","admin()":"f851a440","announceResults(uint256[])":"9eb7a5f2","answer(uint256[],uint8[])":"984e18f1","canVote(uint256[])":"3432c44f","clearProposalByIndex(uint256)":"1525048f","clearProposalByTallyId(uint256)":"ff0fc0c9","disabled()":"ee070805","discoverProposals(uint256[],uint256[])":"306750bd","getProposal(uint256)":"c7f758a8","hasVotingPower(address)":"a9b4563c","isMember(address)":"a230c524","proposalDisablerList(uint256,address)":"ae7c8116","proposalList(uint256)":"c6311e3f","setAdmin(address)":"704b6c02","setDisablePower(uint256[])":"e7194278","setTallyGovernor(address)":"dec45df2","setToad(address)":"895ccf53","setValidBlockInterval(uint256)":"3ceeb85d","tallyGovernor()":"75092114","toad()":"6a832c3c","toggle(uint256[],address)":"f758a86d","validBlockInterval()":"529bb746","vote(uint256[])":"ce11f2bb"},"id":57}